Component: ARM Compiler 5.06 update 6 (build 750) Tool: armlink [4d35ed]

==============================================================================

Section Cross References

    startup_fm33lc0xx.o(STACK) refers (Special) to heapauxi.o(.text) for __use_two_region_memory
    startup_fm33lc0xx.o(HEAP) refers (Special) to heapauxi.o(.text) for __use_two_region_memory
    startup_fm33lc0xx.o(RESET) refers (Special) to heapauxi.o(.text) for __use_two_region_memory
    startup_fm33lc0xx.o(RESET) refers to startup_fm33lc0xx.o(STACK) for __initial_sp
    startup_fm33lc0xx.o(RESET) refers to startup_fm33lc0xx.o(.text) for Reset_Handler
    startup_fm33lc0xx.o(RESET) refers to main.o(i.HardFault_Handler) for HardFault_Handler
    startup_fm33lc0xx.o(RESET) refers to adc.o(i.ADC_IRQHandler) for ADC_IRQHandler
    startup_fm33lc0xx.o(RESET) refers to lptim32_timing.o(i.LPTIM_IRQHandler) for LPTIM_IRQHandler
    startup_fm33lc0xx.o(RESET) refers to uart.o(i.DMA_IRQHandler) for DMA_IRQHandler
    startup_fm33lc0xx.o(RESET) refers to bstim32_timing.o(i.BSTIM_IRQHandler) for BSTIM_IRQHandler
    startup_fm33lc0xx.o(.text) refers (Special) to heapauxi.o(.text) for __use_two_region_memory
    startup_fm33lc0xx.o(.text) refers to system_fm33lc0xx.o(i.SystemInit) for SystemInit
    startup_fm33lc0xx.o(.text) refers to __main.o(!!!main) for __main
    startup_fm33lc0xx.o(.text) refers to startup_fm33lc0xx.o(HEAP) for Heap_Mem
    startup_fm33lc0xx.o(.text) refers to startup_fm33lc0xx.o(STACK) for Stack_Mem
    adc.o(i.ADC_IRQHandler) refers to adc.o(i.FL_ADC_IsActiveFlag_EndOfConversion) for FL_ADC_IsActiveFlag_EndOfConversion
    adc.o(i.ADC_IRQHandler) refers to adc.o(i.FL_ADC_ClearFlag_EndOfConversion) for FL_ADC_ClearFlag_EndOfConversion
    adc.o(i.ADC_IRQHandler) refers to adc.o(.data) for ADCComplete
==============================================================================

Removing Unused input sections from the image.

    Removing mf_config.o(.rev16_text), (4 bytes).
    Removing mf_config.o(.revsh_text), (4 bytes).
    Removing mf_config.o(i.Error_Handler), (2 bytes).
    Removing adc.o(.rev16_text), (4 bytes).
    Removing adc.o(.revsh_text), (4 bytes).
    Removing adc.o(i.FL_VREF_DisableVREFBuffer), (10 bytes).
    Removing adc.o(i.FL_VREF_EnableVREFBuffer), (10 bytes).
    Removing adc.o(i.GetSingleChannelSample_IT), (112 bytes).
    Removing adc.o(i.GetSingleChannelVoltage_IT), (100 bytes).
    Removing adc.o(i.GetSingleChannelVoltage_POLL), (100 bytes).
    Removing adc.o(i.GetTSSample_POLL), (144 bytes).
    Removing adc.o(i.GetTS_POLL), (252 bytes).
    Removing adc.o(i.GetVREF1P2Sample_IT), (132 bytes).
    Removing adc.o(i.GetVREF1P2Sample_POLL), (124 bytes).
    Removing bstim32_timing.o(.rev16_text), (4 bytes).
    Removing bstim32_timing.o(.revsh_text), (4 bytes).
    Removing bstim32_timing.o(i.BSTIM32_Loop), (2 bytes).
    Removing bstim32_timing.o(i.BSTIM32_Start), (24 bytes).
==============================================================================

Image Symbol Table

    Local Symbols

    Symbol Name                              Value     Ov Type        Size  Object(Section)

    RESET                                    0x00000000   Section      192  startup_fm33lc0xx.o(RESET)
    ../Drivers/CMSIS/Device/FM/FM33xx/Source/Templates/arm/startup_fm33lc0xx.s 0x00000000   Number         0  startup_fm33lc0xx.o ABSOLUTE
    ../clib/angel/boardlib.s                 0x00000000   Number         0  boardinit1.o ABSOLUTE
    ../clib/angel/boardlib.s                 0x00000000   Number         0  boardinit2.o ABSOLUTE
    ../clib/angel/boardlib.s                 0x00000000   Number         0  boardshut.o ABSOLUTE
    ../clib/angel/boardlib.s                 0x00000000   Number         0  boardinit3.o ABSOLUTE
    ../clib/angel/handlers.s                 0x00000000   Number         0  __scatter_copy.o ABSOLUTE
    ../clib/angel/handlers.s                 0x00000000   Number         0  __scatter_zi.o ABSOLUTE
    ../clib/angel/kernel.s                   0x00000000   Number         0  rtexit.o ABSOLUTE
    ../clib/angel/kernel.s                   0x00000000   Number         0  rtexit2.o ABSOLUTE
    ../clib/angel/kernel.s                   0x00000000   Number         0  __rtentry2.o ABSOLUTE
    ../clib/angel/kernel.s                   0x00000000   Number         0  __rtentry4.o ABSOLUTE
    ../clib/angel/kernel.s                   0x00000000   Number         0  __rtentry.o ABSOLUTE
    ../clib/angel/rt.s                       0x00000000   Number         0  aeabi_idiv0_sigfpe.o ABSOLUTE
    ../clib/angel/rt.s                       0x00000000   Number         0  aeabi_ldiv0.o ABSOLUTE
    ../clib/angel/rt.s                       0x00000000   Number         0  aeabi_ldiv0_sigfpe.o ABSOLUTE
    ../clib/angel/rt.s                       0x00000000   Number         0  rt_div0.o ABSOLUTE
    ../clib/angel/rt.s                       0x00000000   Number         0  rt_raise.o ABSOLUTE
    ../clib/angel/rt.s                       0x00000000   Number         0  aeabi_idiv0.o ABSOLUTE
    ../clib/angel/scatterp.s                 0x00000000   Number         0  __scatter.o ABSOLUTE
    ../clib/angel/startup.s                  0x00000000   Number         0  __main.o ABSOLUTE
    ../clib/angel/sys.s                      0x00000000   Number         0  tempstk.o ABSOLUTE
    ../clib/angel/sys.s                      0x00000000   Number         0  sys_stackheap_outer.o ABSOLUTE
    ../clib/angel/sys.s                      0x00000000   Number         0  libspace.o ABSOLUTE
    ../clib/angel/sys.s                      0x00000000   Number         0  use_no_semi.o ABSOLUTE
    ../clib/angel/sys.s                      0x00000000   Number         0  indicate_semi.o ABSOLUTE
    ../clib/angel/sys.s                      0x00000000   Number         0  use_no_semi_2.o ABSOLUTE
    ../clib/angel/sysapp.c                   0x00000000   Number         0  sys_wrch.o ABSOLUTE
    ../clib/angel/sysapp.c                   0x00000000   Number         0  sys_command.o ABSOLUTE
    ../clib/armsys.c                         0x00000000   Number         0  _get_argv_nomalloc.o ABSOLUTE
    ../clib/armsys.c                         0x00000000   Number         0  argv_veneer.o ABSOLUTE
    ../clib/armsys.c                         0x00000000   Number         0  no_argv.o ABSOLUTE
    ../clib/division.c                       0x00000000   Number         0  rtudiv10.o ABSOLUTE
    ../clib/division.c                       0x00000000   Number         0  lludiv.o ABSOLUTE
    ../clib/division.s                       0x00000000   Number         0  aeabi_sdiv.o ABSOLUTE
    ../clib/division.s                       0x00000000   Number         0  aeabi_sdiv_div0.o ABSOLUTE
    ../clib/heapalloc.c                      0x00000000   Number         0  hrguard.o ABSOLUTE
    ../clib/heapaux.c                        0x00000000   Number         0  heapauxi.o ABSOLUTE
    ../clib/libinit.s                        0x00000000   Number         0  libshutdown2.o ABSOLUTE
    ../clib/libinit.s                        0x00000000   Number         0  libinit2.o ABSOLUTE
    ../clib/libinit.s                        0x00000000   Number         0  libinit.o ABSOLUTE
    ../clib/libinit.s                        0x00000000   Number         0  libshutdown.o ABSOLUTE
    ../clib/longlong.c                       0x00000000   Number         0  llmul.o ABSOLUTE
    ../clib/memcpset.c                       0x00000000   Number         0  aeabi_memset.o ABSOLUTE
    ../clib/memcpset.c                       0x00000000   Number         0  rt_memcpy.o ABSOLUTE
    ../clib/memcpset.c                       0x00000000   Number         0  rt_memclr.o ABSOLUTE
    ../clib/memcpset.c                       0x00000000   Number         0  rt_memcpy.o ABSOLUTE
    ../clib/printf.c                         0x00000000   Number         0  _printf_hex_int_ll_ptr.o ABSOLUTE
    ../clib/printf.c                         0x00000000   Number         0  __printf.o ABSOLUTE
    ../clib/printf.c                         0x00000000   Number         0  _printf_hex_ll_ptr.o ABSOLUTE
    ../clib/printf.c                         0x00000000   Number         0  _printf_intcommon.o ABSOLUTE
    ../clib/printf.c                         0x00000000   Number         0  _printf_char_common.o ABSOLUTE
    ../clib/printf.c                         0x00000000   Number         0  noretval__2printf.o ABSOLUTE
    ../clib/printf.c                         0x00000000   Number         0  __2sprintf.o ABSOLUTE
    ../clib/printf.c                         0x00000000   Number         0  __2printf.o ABSOLUTE
    ../clib/printf.c                         0x00000000   Number         0  noretval__2sprintf.o ABSOLUTE
    ../clib/printf.c                         0x00000000   Number         0  _sputc.o ABSOLUTE
    ../clib/printf.c                         0x00000000   Number         0  _printf_char.o ABSOLUTE
    ../clib/printf.c                         0x00000000   Number         0  _printf_char_file.o ABSOLUTE
    ../clib/printf.c                         0x00000000   Number         0  __printf_flags_ss_wp.o ABSOLUTE
    ../clib/printf.c                         0x00000000   Number         0  __printf_ss_wp.o ABSOLUTE
    ../clib/printf.c                         0x00000000   Number         0  __printf_flags_wp.o ABSOLUTE
    ../clib/printf.c                         0x00000000   Number         0  __printf_wp.o ABSOLUTE
    ../clib/printf.c                         0x00000000   Number         0  __printf_flags_ss.o ABSOLUTE
    ../clib/printf.c                         0x00000000   Number         0  __printf_ss.o ABSOLUTE
    ../clib/printf.c                         0x00000000   Number         0  __printf_flags.o ABSOLUTE
    ../clib/printf.c                         0x00000000   Number         0  __printf_nopercent.o ABSOLUTE
    ../clib/printf.c                         0x00000000   Number         0  _printf_hex_int_ptr.o ABSOLUTE
    ../clib/printf.c                         0x00000000   Number         0  _printf_hex_ptr.o ABSOLUTE
    ../clib/printf.c                         0x00000000   Number         0  _printf_hex_int_ll.o ABSOLUTE
    ../clib/printf.c                         0x00000000   Number         0  _printf_hex_int.o ABSOLUTE
    ../clib/printf.c                         0x00000000   Number         0  _printf_hex_ll.o ABSOLUTE
    ../clib/printf.c                         0x00000000   Number         0  _printf_dec.o ABSOLUTE
    ../clib/printf.c                         0x00000000   Number         0  _printf_str.o ABSOLUTE
    ../clib/printf_percent.s                 0x00000000   Number         0  _printf_percent_end.o ABSOLUTE
    ../clib/printf_percent.s                 0x00000000   Number         0  _printf_percent.o ABSOLUTE
    ../clib/printf_percent.s                 0x00000000   Number         0  _printf_u.o ABSOLUTE
    ../clib/printf_percent.s                 0x00000000   Number         0  _printf_d.o ABSOLUTE
    ../clib/printf_percent.s                 0x00000000   Number         0  _printf_x.o ABSOLUTE
    ../clib/printf_percent.s                 0x00000000   Number         0  _printf_c.o ABSOLUTE
    ../clib/signal.c                         0x00000000   Number         0  defsig_pvfn_inner.o ABSOLUTE
    ../clib/signal.c                         0x00000000   Number         0  defsig_stak_inner.o ABSOLUTE
    ../clib/signal.c                         0x00000000   Number         0  defsig_rtmem_formal.o ABSOLUTE
    ../clib/signal.c                         0x00000000   Number         0  defsig_rtmem_outer.o ABSOLUTE
    ../clib/signal.c                         0x00000000   Number         0  defsig_fpe_outer.o ABSOLUTE
    ../clib/signal.c                         0x00000000   Number         0  defsig_exit.o ABSOLUTE
    ../clib/signal.c                         0x00000000   Number         0  defsig_fpe_formal.o ABSOLUTE
    ../clib/signal.c                         0x00000000   Number         0  defsig_rtmem_inner.o ABSOLUTE
    ../clib/signal.c                         0x00000000   Number         0  defsig_abrt_inner.o ABSOLUTE
    ../clib/signal.c                         0x00000000   Number         0  defsig_rtred_inner.o ABSOLUTE
    ../clib/signal.c                         0x00000000   Number         0  defsig_general.o ABSOLUTE
    ../clib/signal.c                         0x00000000   Number         0  __raise.o ABSOLUTE
    ../clib/signal.c                         0x00000000   Number         0  defsig_other.o ABSOLUTE
    ../clib/signal.c                         0x00000000   Number         0  defsig_segv_inner.o ABSOLUTE
    ../clib/signal.c                         0x00000000   Number         0  defsig_cppl_inner.o ABSOLUTE
    ../clib/signal.c                         0x00000000   Number         0  defsig_fpe_inner.o ABSOLUTE
    ../clib/signal.s                         0x00000000   Number         0  defsig.o ABSOLUTE
    ../clib/stdio.c                          0x00000000   Number         0  ferror_locked.o ABSOLUTE
    ../clib/stdio.c                          0x00000000   Number         0  ferror.o ABSOLUTE
    ../clib/stdlib.c                         0x00000000   Number         0  exit.o ABSOLUTE
    ../clib/string.c                         0x00000000   Number         0  strlen.o ABSOLUTE
    ../clib/string.c                         0x00000000   Number         0  strcpy.o ABSOLUTE
    ../fplib/cfplib/cmpret.c                 0x00000000   Number         0  cmpret.o ABSOLUTE
    ../fplib/cfplib/d2f.c                    0x00000000   Number         0  d2f.o ABSOLUTE
    ../fplib/cfplib/daddsub.c                0x00000000   Number         0  daddsub.o ABSOLUTE
    ../fplib/cfplib/ddiv.c                   0x00000000   Number         0  ddiv.o ABSOLUTE
    ../fplib/cfplib/dmul.c                   0x00000000   Number         0  dmul.o ABSOLUTE
    ../fplib/cfplib/f2d.c                    0x00000000   Number         0  f2d.o ABSOLUTE
    ../fplib/cfplib/fcmpin.c                 0x00000000   Number         0  fcmpin.o ABSOLUTE
    ../fplib/cfplib/fdiv.c                   0x00000000   Number         0  fdiv.o ABSOLUTE
    ../fplib/cfplib/ffix.c                   0x00000000   Number         0  dfixui.o ABSOLUTE
    ../fplib/cfplib/fflt.c                   0x00000000   Number         0  dflti.o ABSOLUTE
    ../fplib/cfplib/fflt.c                   0x00000000   Number         0  fflti.o ABSOLUTE
    ../fplib/cfplib/fpinit.c                 0x00000000   Number         0  fpinit.o ABSOLUTE
    ../fplib/cfplib/nan2.c                   0x00000000   Number         0  fnan2.o ABSOLUTE
    ../fplib/cfplib/retnan.c                 0x00000000   Number         0  retnan.o ABSOLUTE
    ../fplib/fleqf6m.s                       0x00000000   Number         0  flef.o ABSOLUTE
    ../fplib/usenofp.s                       0x00000000   Number         0  usenofp.o ABSOLUTE
    ..\Drivers\CMSIS\Device\FM\FM33xx\Source\system_fm33lc0xx.c 0x00000000   Number         0  system_fm33lc0xx.o ABSOLUTE
    ..\Drivers\FM33LC0xx_FL_Driver\Src\fm33lc0xx_fl_adc.c 0x00000000   Number         0  fm33lc0xx_fl_adc.o ABSOLUTE
    ..\Drivers\FM33LC0xx_FL_Driver\Src\fm33lc0xx_fl_aes.c 0x00000000   Number         0  fm33lc0xx_fl_aes.o ABSOLUTE
    ..\Drivers\FM33LC0xx_FL_Driver\Src\fm33lc0xx_fl_atim.c 0x00000000   Number         0  fm33lc0xx_fl_atim.o ABSOLUTE
    ..\Drivers\FM33LC0xx_FL_Driver\Src\fm33lc0xx_fl_bstim32.c 0x00000000   Number         0  fm33lc0xx_fl_bstim32.o ABSOLUTE
    ..\Drivers\FM33LC0xx_FL_Driver\Src\fm33lc0xx_fl_comp.c 0x00000000   Number         0  fm33lc0xx_fl_comp.o ABSOLUTE
    ..\Drivers\FM33LC0xx_FL_Driver\Src\fm33lc0xx_fl_crc.c 0x00000000   Number         0  fm33lc0xx_fl_crc.o ABSOLUTE
    ..\Drivers\FM33LC0xx_FL_Driver\Src\fm33lc0xx_fl_divas.c 0x00000000   Number         0  fm33lc0xx_fl_divas.o ABSOLUTE
    ..\Drivers\FM33LC0xx_FL_Driver\Src\fm33lc0xx_fl_dma.c 0x00000000   Number         0  fm33lc0xx_fl_dma.o ABSOLUTE
    ..\Drivers\FM33LC0xx_FL_Driver\Src\fm33lc0xx_fl_flash.c 0x00000000   Number         0  fm33lc0xx_fl_flash.o ABSOLUTE
    ..\Drivers\FM33LC0xx_FL_Driver\Src\fm33lc0xx_fl_gpio.c 0x00000000   Number         0  fm33lc0xx_fl_gpio.o ABSOLUTE
    ..\Drivers\FM33LC0xx_FL_Driver\Src\fm33lc0xx_fl_gptim.c 0x00000000   Number         0  fm33lc0xx_fl_gptim.o ABSOLUTE
    ..\Drivers\FM33LC0xx_FL_Driver\Src\fm33lc0xx_fl_i2c.c 0x00000000   Number         0  fm33lc0xx_fl_i2c.o ABSOLUTE
    ..\Drivers\FM33LC0xx_FL_Driver\Src\fm33lc0xx_fl_iwdt.c 0x00000000   Number         0  fm33lc0xx_fl_iwdt.o ABSOLUTE
    ..\Drivers\FM33LC0xx_FL_Driver\Src\fm33lc0xx_fl_lptim32.c 0x00000000   Number         0  fm33lc0xx_fl_lptim32.o ABSOLUTE
    ..\Drivers\FM33LC0xx_FL_Driver\Src\fm33lc0xx_fl_lpuart.c 0x00000000   Number         0  fm33lc0xx_fl_lpuart.o ABSOLUTE
    ..\Drivers\FM33LC0xx_FL_Driver\Src\fm33lc0xx_fl_opa.c 0x00000000   Number         0  fm33lc0xx_fl_opa.o ABSOLUTE
    ..\Drivers\FM33LC0xx_FL_Driver\Src\fm33lc0xx_fl_pmu.c 0x00000000   Number         0  fm33lc0xx_fl_pmu.o ABSOLUTE
    ..\Drivers\FM33LC0xx_FL_Driver\Src\fm33lc0xx_fl_rcc.c 0x00000000   Number         0  fm33lc0xx_fl_rcc.o ABSOLUTE
    ..\Drivers\FM33LC0xx_FL_Driver\Src\fm33lc0xx_fl_rng.c 0x00000000   Number         0  fm33lc0xx_fl_rng.o ABSOLUTE
    ..\Drivers\FM33LC0xx_FL_Driver\Src\fm33lc0xx_fl_rtc.c 0x00000000   Number         0  fm33lc0xx_fl_rtc.o ABSOLUTE
    ..\Drivers\FM33LC0xx_FL_Driver\Src\fm33lc0xx_fl_spi.c 0x00000000   Number         0  fm33lc0xx_fl_spi.o ABSOLUTE
    ..\Drivers\FM33LC0xx_FL_Driver\Src\fm33lc0xx_fl_svd.c 0x00000000   Number         0  fm33lc0xx_fl_svd.o ABSOLUTE
    ..\Drivers\FM33LC0xx_FL_Driver\Src\fm33lc0xx_fl_u7816.c 0x00000000   Number         0  fm33lc0xx_fl_u7816.o ABSOLUTE
    ..\Drivers\FM33LC0xx_FL_Driver\Src\fm33lc0xx_fl_uart.c 0x00000000   Number         0  fm33lc0xx_fl_uart.o ABSOLUTE
    ..\Drivers\FM33LC0xx_FL_Driver\Src\fm33lc0xx_fl_wwdt.c 0x00000000   Number         0  fm33lc0xx_fl_wwdt.o ABSOLUTE
    ..\FreeRTOS\croutine.c                   0x00000000   Number         0  croutine.o ABSOLUTE
    ..\FreeRTOS\list.c                       0x00000000   Number         0  list.o ABSOLUTE
    ..\FreeRTOS\portable\MemMang\heap_4.c    0x00000000   Number         0  heap_4.o ABSOLUTE
    ..\FreeRTOS\portable\RVDS\ARM_CM0\port.c 0x00000000   Number         0  port.o ABSOLUTE
    ..\FreeRTOS\queue.c                      0x00000000   Number         0  queue.o ABSOLUTE
    ..\FreeRTOS\tasks.c                      0x00000000   Number         0  tasks.o ABSOLUTE
    ..\FreeRTOS\timers.c                     0x00000000   Number         0  timers.o ABSOLUTE
    ..\MF-config\Src\mf_config.c             0x00000000   Number         0  mf_config.o ABSOLUTE
    ..\Src\adc.c                             0x00000000   Number         0  adc.o ABSOLUTE
    ..\Src\bstim32_timing.c                  0x00000000   Number         0  bstim32_timing.o ABSOLUTE
    ..\Src\gpio.c                            0x00000000   Number         0  gpio.o ABSOLUTE
    ..\Src\lptim32_timing.c                  0x00000000   Number         0  lptim32_timing.o ABSOLUTE
    ..\Src\main.c                            0x00000000   Number         0  main.o ABSOLUTE
    ..\Src\taskadc.c                         0x00000000   Number         0  taskadc.o ABSOLUTE
    ..\Src\taskuart.c                        0x00000000   Number         0  taskuart.o ABSOLUTE
    ..\Src\uart.c                            0x00000000   Number         0  uart.o ABSOLUTE
    ..\Src\user_init.c                       0x00000000   Number         0  user_init.o ABSOLUTE
    ..\\Drivers\\CMSIS\\Device\\FM\\FM33xx\\Source\\system_fm33lc0xx.c 0x00000000   Number         0  system_fm33lc0xx.o ABSOLUTE
    ..\\Drivers\\FM33LC0xx_FL_Driver\\Src\\fm33lc0xx_fl_adc.c 0x00000000   Number         0  fm33lc0xx_fl_adc.o ABSOLUTE
    ..\\Drivers\\FM33LC0xx_FL_Driver\\Src\\fm33lc0xx_fl_aes.c 0x00000000   Number         0  fm33lc0xx_fl_aes.o ABSOLUTE
    ..\\Drivers\\FM33LC0xx_FL_Driver\\Src\\fm33lc0xx_fl_atim.c 0x00000000   Number         0  fm33lc0xx_fl_atim.o ABSOLUTE
    ..\\Drivers\\FM33LC0xx_FL_Driver\\Src\\fm33lc0xx_fl_bstim32.c 0x00000000   Number         0  fm33lc0xx_fl_bstim32.o ABSOLUTE
    ..\\Drivers\\FM33LC0xx_FL_Driver\\Src\\fm33lc0xx_fl_comp.c 0x00000000   Number         0  fm33lc0xx_fl_comp.o ABSOLUTE
    ..\\Drivers\\FM33LC0xx_FL_Driver\\Src\\fm33lc0xx_fl_crc.c 0x00000000   Number         0  fm33lc0xx_fl_crc.o ABSOLUTE
    ..\\Drivers\\FM33LC0xx_FL_Driver\\Src\\fm33lc0xx_fl_divas.c 0x00000000   Number         0  fm33lc0xx_fl_divas.o ABSOLUTE
    ..\\Drivers\\FM33LC0xx_FL_Driver\\Src\\fm33lc0xx_fl_dma.c 0x00000000   Number         0  fm33lc0xx_fl_dma.o ABSOLUTE
    ..\\Drivers\\FM33LC0xx_FL_Driver\\Src\\fm33lc0xx_fl_flash.c 0x00000000   Number         0  fm33lc0xx_fl_flash.o ABSOLUTE
    ..\\Drivers\\FM33LC0xx_FL_Driver\\Src\\fm33lc0xx_fl_gpio.c 0x00000000   Number         0  fm33lc0xx_fl_gpio.o ABSOLUTE
    ..\\Drivers\\FM33LC0xx_FL_Driver\\Src\\fm33lc0xx_fl_gptim.c 0x00000000   Number         0  fm33lc0xx_fl_gptim.o ABSOLUTE
    ..\\Drivers\\FM33LC0xx_FL_Driver\\Src\\fm33lc0xx_fl_i2c.c 0x00000000   Number         0  fm33lc0xx_fl_i2c.o ABSOLUTE
    ..\\Drivers\\FM33LC0xx_FL_Driver\\Src\\fm33lc0xx_fl_iwdt.c 0x00000000   Number         0  fm33lc0xx_fl_iwdt.o ABSOLUTE
    ..\\Drivers\\FM33LC0xx_FL_Driver\\Src\\fm33lc0xx_fl_lptim32.c 0x00000000   Number         0  fm33lc0xx_fl_lptim32.o ABSOLUTE
    ..\\Drivers\\FM33LC0xx_FL_Driver\\Src\\fm33lc0xx_fl_lpuart.c 0x00000000   Number         0  fm33lc0xx_fl_lpuart.o ABSOLUTE
    ..\\Drivers\\FM33LC0xx_FL_Driver\\Src\\fm33lc0xx_fl_opa.c 0x00000000   Number         0  fm33lc0xx_fl_opa.o ABSOLUTE
    ..\\Drivers\\FM33LC0xx_FL_Driver\\Src\\fm33lc0xx_fl_pmu.c 0x00000000   Number         0  fm33lc0xx_fl_pmu.o ABSOLUTE
    ..\\Drivers\\FM33LC0xx_FL_Driver\\Src\\fm33lc0xx_fl_rcc.c 0x00000000   Number         0  fm33lc0xx_fl_rcc.o ABSOLUTE
    ..\\Drivers\\FM33LC0xx_FL_Driver\\Src\\fm33lc0xx_fl_rng.c 0x00000000   Number         0  fm33lc0xx_fl_rng.o ABSOLUTE
    ..\\Drivers\\FM33LC0xx_FL_Driver\\Src\\fm33lc0xx_fl_rtc.c 0x00000000   Number         0  fm33lc0xx_fl_rtc.o ABSOLUTE
    ..\\Drivers\\FM33LC0xx_FL_Driver\\Src\\fm33lc0xx_fl_spi.c 0x00000000   Number         0  fm33lc0xx_fl_spi.o ABSOLUTE
    ..\\Drivers\\FM33LC0xx_FL_Driver\\Src\\fm33lc0xx_fl_svd.c 0x00000000   Number         0  fm33lc0xx_fl_svd.o ABSOLUTE
    ..\\Drivers\\FM33LC0xx_FL_Driver\\Src\\fm33lc0xx_fl_u7816.c 0x00000000   Number         0  fm33lc0xx_fl_u7816.o ABSOLUTE
    ..\\Drivers\\FM33LC0xx_FL_Driver\\Src\\fm33lc0xx_fl_uart.c 0x00000000   Number         0  fm33lc0xx_fl_uart.o ABSOLUTE
    ..\\Drivers\\FM33LC0xx_FL_Driver\\Src\\fm33lc0xx_fl_wwdt.c 0x00000000   Number         0  fm33lc0xx_fl_wwdt.o ABSOLUTE
    ..\\FreeRTOS\\portable\\RVDS\\ARM_CM0\\port.c 0x00000000   Number         0  port.o ABSOLUTE
    ..\\MF-config\\Src\\mf_config.c          0x00000000   Number         0  mf_config.o ABSOLUTE
    ..\\Src\\adc.c                           0x00000000   Number         0  adc.o ABSOLUTE
    ..\\Src\\bstim32_timing.c                0x00000000   Number         0  bstim32_timing.o ABSOLUTE
    ..\\Src\\gpio.c                          0x00000000   Number         0  gpio.o ABSOLUTE
    ..\\Src\\lptim32_timing.c                0x00000000   Number         0  lptim32_timing.o ABSOLUTE
    ..\\Src\\main.c                          0x00000000   Number         0  main.o ABSOLUTE
    ..\\Src\\taskadc.c                       0x00000000   Number         0  taskadc.o ABSOLUTE
    ..\\Src\\taskuart.c                      0x00000000   Number         0  taskuart.o ABSOLUTE
    ..\\Src\\uart.c                          0x00000000   Number         0  uart.o ABSOLUTE
    ..\\Src\\user_init.c                     0x00000000   Number         0  user_init.o ABSOLUTE
    dc.s                                     0x00000000   Number         0  dc.o ABSOLUTE
    !!!main                                  0x000000c0   Section        8  __main.o(!!!main)
    !!!scatter                               0x000000c8   Section       60  __scatter.o(!!!scatter)
    !!handler_copy                           0x00000104   Section       26  __scatter_copy.o(!!handler_copy)
    !!handler_zi                             0x00000120   Section       28  __scatter_zi.o(!!handler_zi)
    .ARM.Collect$$_printf_percent$$00000000  0x0000013c   Section        2  _printf_percent.o(.ARM.Collect$$_printf_percent$$00000000)
    .ARM.Collect$$_printf_percent$$00000009  0x0000013e   Section       10  _printf_d.o(.ARM.Collect$$_printf_percent$$00000009)
    .ARM.Collect$$_printf_percent$$0000000C  0x00000148   Section       10  _printf_x.o(.ARM.Collect$$_printf_percent$$0000000C)
    .ARM.Collect$$_printf_percent$$00000017  0x00000152   Section        4  _printf_percent_end.o(.ARM.Collect$$_printf_percent$$00000017)
    .ARM.Collect$$libinit$$00000000          0x00000156   Section        2  libinit.o(.ARM.Collect$$libinit$$00000000)
    .ARM.Collect$$libinit$$00000002          0x00000158   Section        0  libinit2.o(.ARM.Collect$$libinit$$00000002)
    .ARM.Collect$$libinit$$00000004          0x00000158   Section        0  libinit2.o(.ARM.Collect$$libinit$$00000004)
    .ARM.Collect$$libinit$$0000000A          0x00000158   Section        0  libinit2.o(.ARM.Collect$$libinit$$0000000A)
    .ARM.Collect$$libinit$$0000000C          0x00000158   Section        0  libinit2.o(.ARM.Collect$$libinit$$0000000C)
    .ARM.Collect$$libinit$$0000000E          0x00000158   Section        0  libinit2.o(.ARM.Collect$$libinit$$0000000E)
    .ARM.Collect$$libinit$$00000011          0x00000158   Section        0  libinit2.o(.ARM.Collect$$libinit$$00000011)
    .ARM.Collect$$libinit$$00000013          0x00000158   Section        0  libinit2.o(.ARM.Collect$$libinit$$00000013)
    .ARM.Collect$$libinit$$00000015          0x00000158   Section        0  libinit2.o(.ARM.Collect$$libinit$$00000015)
    .ARM.Collect$$libinit$$00000017          0x00000158   Section        0  libinit2.o(.ARM.Collect$$libinit$$00000017)
    .ARM.Collect$$libinit$$00000019          0x00000158   Section        0  libinit2.o(.ARM.Collect$$libinit$$00000019)
    .ARM.Collect$$libinit$$0000001B          0x00000158   Section        0  libinit2.o(.ARM.Collect$$libinit$$0000001B)
    .ARM.Collect$$libinit$$0000001D          0x00000158   Section        0  libinit2.o(.ARM.Collect$$libinit$$0000001D)
    .ARM.Collect$$libinit$$0000001F          0x00000158   Section        0  libinit2.o(.ARM.Collect$$libinit$$0000001F)
    .ARM.Collect$$libinit$$00000021          0x00000158   Section        0  libinit2.o(.ARM.Collect$$libinit$$00000021)
    .ARM.Collect$$libinit$$00000023          0x00000158   Section        0  libinit2.o(.ARM.Collect$$libinit$$00000023)
    .ARM.Collect$$libinit$$00000025          0x00000158   Section        0  libinit2.o(.ARM.Collect$$libinit$$00000025)
    .ARM.Collect$$libinit$$0000002C          0x00000158   Section        0  libinit2.o(.ARM.Collect$$libinit$$0000002C)
    .ARM.Collect$$libinit$$0000002E          0x00000158   Section        0  libinit2.o(.ARM.Collect$$libinit$$0000002E)
    .ARM.Collect$$libinit$$00000030          0x00000158   Section        0  libinit2.o(.ARM.Collect$$libinit$$00000030)
    .ARM.Collect$$libinit$$00000032          0x00000158   Section        0  libinit2.o(.ARM.Collect$$libinit$$00000032)
    .ARM.Collect$$libinit$$00000033          0x00000158   Section        2  libinit2.o(.ARM.Collect$$libinit$$00000033)
    .ARM.Collect$$libshutdown$$00000000      0x0000015a   Section        2  libshutdown.o(.ARM.Collect$$libshutdown$$00000000)
    .ARM.Collect$$libshutdown$$00000002      0x0000015c   Section        0  libshutdown2.o(.ARM.Collect$$libshutdown$$00000002)
    .ARM.Collect$$libshutdown$$00000004      0x0000015c   Section        0  libshutdown2.o(.ARM.Collect$$libshutdown$$00000004)
    .ARM.Collect$$libshutdown$$00000007      0x0000015c   Section        0  libshutdown2.o(.ARM.Collect$$libshutdown$$00000007)
    .ARM.Collect$$libshutdown$$0000000A      0x0000015c   Section        0  libshutdown2.o(.ARM.Collect$$libshutdown$$0000000A)
    .ARM.Collect$$libshutdown$$0000000C      0x0000015c   Section        0  libshutdown2.o(.ARM.Collect$$libshutdown$$0000000C)
    .ARM.Collect$$libshutdown$$0000000F      0x0000015c   Section        0  libshutdown2.o(.ARM.Collect$$libshutdown$$0000000F)
    .ARM.Collect$$libshutdown$$00000010      0x0000015c   Section        2  libshutdown2.o(.ARM.Collect$$libshutdown$$00000010)
    .ARM.Collect$$rtentry$$00000000          0x0000015e   Section        0  __rtentry.o(.ARM.Collect$$rtentry$$00000000)
    .ARM.Collect$$rtentry$$00000002          0x0000015e   Section        0  __rtentry2.o(.ARM.Collect$$rtentry$$00000002)
    .ARM.Collect$$rtentry$$00000004          0x0000015e   Section        6  __rtentry4.o(.ARM.Collect$$rtentry$$00000004)
    .ARM.Collect$$rtentry$$00000009          0x00000164   Section        0  __rtentry2.o(.ARM.Collect$$rtentry$$00000009)
    .ARM.Collect$$rtentry$$0000000A          0x00000164   Section        4  __rtentry2.o(.ARM.Collect$$rtentry$$0000000A)
    .ARM.Collect$$rtentry$$0000000C          0x00000168   Section        0  __rtentry2.o(.ARM.Collect$$rtentry$$0000000C)
    .ARM.Collect$$rtentry$$0000000D          0x00000168   Section        8  __rtentry2.o(.ARM.Collect$$rtentry$$0000000D)
    .ARM.Collect$$rtexit$$00000000           0x00000170   Section        2  rtexit.o(.ARM.Collect$$rtexit$$00000000)
    .ARM.Collect$$rtexit$$00000002           0x00000172   Section        0  rtexit2.o(.ARM.Collect$$rtexit$$00000002)
    .ARM.Collect$$rtexit$$00000003           0x00000172   Section        4  rtexit2.o(.ARM.Collect$$rtexit$$00000003)
    .ARM.Collect$$rtexit$$00000004           0x00000176   Section        6  rtexit2.o(.ARM.Collect$$rtexit$$00000004)
    .emb_text                                0x0000017c   Section      120  port.o(.emb_text)
    .emb_text                                0x000001f4   Section       56  rt_memcpy.o(.emb_text)
    .text                                    0x0000022c   Section       56  startup_fm33lc0xx.o(.text)
    .text                                    0x00000264   Section        2  use_no_semi_2.o(.text)
    .text                                    0x00000266   Section        0  lludiv.o(.text)
    .text                                    0x00000368   Section        0  noretval__2printf.o(.text)
    .text                                    0x00000384   Section        0  __printf.o(.text)
    .text                                    0x000003f0   Section        0  _printf_dec.o(.text)
    .text                                    0x0000045c   Section        0  _printf_hex_int.o(.text)
    .text                                    0x000004b4   Section        0  rt_memcpy.o(.text)
    .text                                    0x00000536   Section        0  aeabi_memset.o(.text)
    .text                                    0x00000548   Section        0  rt_memclr.o(.text)
    .text                                    0x00000588   Section      346  aeabi_sdiv.o(.text)
    .text                                    0x000006e2   Section        0  heapauxi.o(.text)
    .text                                    0x000006e8   Section        2  use_no_semi.o(.text)
    .text                                    0x000006ea   Section        0  _printf_intcommon.o(.text)
    .text                                    0x0000079c   Section        0  _printf_char_common.o(.text)
    _printf_input_char                       0x0000079d   Thumb Code    10  _printf_char_common.o(.text)
    .text                                    0x000007cc   Section        0  _printf_char_file.o(.text)
    .text                                    0x000007f4   Section        0  rtudiv10.o(.text)
    .text                                    0x0000081c   Section        0  ferror.o(.text)
    .text                                    0x00000824   Section       62  sys_stackheap_outer.o(.text)
    .text                                    0x00000862   Section        0  exit.o(.text)
    .text                                    0x00000874   Section        8  libspace.o(.text)
    i.ADC_IRQHandler                         0x0000087c   Section        0  adc.o(i.ADC_IRQHandler)
    i.AdcTask                                0x000008b4   Section        0  taskadc.o(i.AdcTask)
    i.BSTIM_IRQHandler                       0x00000910   Section        0  bstim32_timing.o(i.BSTIM_IRQHandler)
    i.DMA_IRQCallBack                        0x00000948   Section        0  taskuart.o(i.DMA_IRQCallBack)
    i.DMA_IRQHandler                         0x00000960   Section        0  uart.o(i.DMA_IRQHandler)
    i.DebugUartInit                          0x00000998   Section        0  user_init.o(i.DebugUartInit)
    i.DelayMs                                0x000009f8   Section        0  user_init.o(i.DelayMs)
    i.DelayUs                                0x00000a10   Section        0  user_init.o(i.DelayUs)
    i.FL_ADC_ClearFlag_EndOfConversion       0x00000a5c   Section        0  adc.o(i.FL_ADC_ClearFlag_EndOfConversion)
    FL_ADC_ClearFlag_EndOfConversion         0x00000a5d   Thumb Code     6  adc.o(i.FL_ADC_ClearFlag_EndOfConversion)
    i.FL_ADC_Disable                         0x00000a62   Section        0  adc.o(i.FL_ADC_Disable)
    FL_ADC_Disable                           0x00000a63   Thumb Code    10  adc.o(i.FL_ADC_Disable)
    i.FL_ADC_DisableSequencerChannel         0x00000a6c   Section        0  adc.o(i.FL_ADC_DisableSequencerChannel)
    FL_ADC_DisableSequencerChannel           0x00000a6d   Thumb Code    12  adc.o(i.FL_ADC_DisableSequencerChannel)
    i.FL_ADC_Enable                          0x00000a78   Section        0  adc.o(i.FL_ADC_Enable)
    FL_ADC_Enable                            0x00000a79   Thumb Code    10  adc.o(i.FL_ADC_Enable)
    i.FL_ADC_EnableSWConversion              0x00000a82   Section        0  adc.o(i.FL_ADC_EnableSWConversion)
    FL_ADC_EnableSWConversion                0x00000a83   Thumb Code    10  adc.o(i.FL_ADC_EnableSWConversion)
    i.FL_ADC_EnableSequencerChannel          0x00000a8c   Section        0  adc.o(i.FL_ADC_EnableSequencerChannel)
    FL_ADC_EnableSequencerChannel            0x00000a8d   Thumb Code    12  adc.o(i.FL_ADC_EnableSequencerChannel)
    i.FL_ADC_IsActiveFlag_EndOfConversion    0x00000a98   Section        0  adc.o(i.FL_ADC_IsActiveFlag_EndOfConversion)
    FL_ADC_IsActiveFlag_EndOfConversion      0x00000a99   Thumb Code    16  adc.o(i.FL_ADC_IsActiveFlag_EndOfConversion)
    i.FL_ADC_ReadConversionData              0x00000aa8   Section        0  adc.o(i.FL_ADC_ReadConversionData)
    FL_ADC_ReadConversionData                0x00000aa9   Thumb Code     8  adc.o(i.FL_ADC_ReadConversionData)
    i.FL_DMA_ClearFlag_TransferComplete      0x00000ab0   Section        0  uart.o(i.FL_DMA_ClearFlag_TransferComplete)
    FL_DMA_ClearFlag_TransferComplete        0x00000ab1   Thumb Code    10  uart.o(i.FL_DMA_ClearFlag_TransferComplete)
    i.FL_DMA_Init                            0x00000abc   Section        0  fm33lc0xx_fl_dma.o(i.FL_DMA_Init)
    i.FL_DMA_StartTransmission               0x00000c30   Section        0  fm33lc0xx_fl_dma.o(i.FL_DMA_StartTransmission)
    i.FL_GPIO_DisablePinAnalogSwitch         0x00000cd0   Section        0  fm33lc0xx_fl_gpio.o(i.FL_GPIO_DisablePinAnalogSwitch)
    FL_GPIO_DisablePinAnalogSwitch           0x00000cd1   Thumb Code    10  fm33lc0xx_fl_gpio.o(i.FL_GPIO_DisablePinAnalogSwitch)
    i.FL_GPIO_DisablePinInput                0x00000cda   Section        0  fm33lc0xx_fl_gpio.o(i.FL_GPIO_DisablePinInput)
    FL_GPIO_DisablePinInput                  0x00000cdb   Thumb Code    10  fm33lc0xx_fl_gpio.o(i.FL_GPIO_DisablePinInput)
    i.FL_GPIO_DisablePinOpenDrain            0x00000ce4   Section        0  fm33lc0xx_fl_gpio.o(i.FL_GPIO_DisablePinOpenDrain)
    FL_GPIO_DisablePinOpenDrain              0x00000ce5   Thumb Code    10  fm33lc0xx_fl_gpio.o(i.FL_GPIO_DisablePinOpenDrain)
    i.FL_GPIO_DisablePinPullup               0x00000cee   Section        0  fm33lc0xx_fl_gpio.o(i.FL_GPIO_DisablePinPullup)
    FL_GPIO_DisablePinPullup                 0x00000cef   Thumb Code    10  fm33lc0xx_fl_gpio.o(i.FL_GPIO_DisablePinPullup)
    i.FL_GPIO_DisablePinRemap                0x00000cf8   Section        0  fm33lc0xx_fl_gpio.o(i.FL_GPIO_DisablePinRemap)
    FL_GPIO_DisablePinRemap                  0x00000cf9   Thumb Code    10  fm33lc0xx_fl_gpio.o(i.FL_GPIO_DisablePinRemap)
    i.FL_GPIO_Init                           0x00000d04   Section        0  fm33lc0xx_fl_gpio.o(i.FL_GPIO_Init)
    i.FL_GPIO_ResetOutputPin                 0x00000df4   Section        0  user_init.o(i.FL_GPIO_ResetOutputPin)
    FL_GPIO_ResetOutputPin                   0x00000df5   Thumb Code    10  user_init.o(i.FL_GPIO_ResetOutputPin)
    i.FL_GPIO_SetPinMode                     0x00000dfe   Section        0  fm33lc0xx_fl_gpio.o(i.FL_GPIO_SetPinMode)
    FL_GPIO_SetPinMode                       0x00000dff   Thumb Code    26  fm33lc0xx_fl_gpio.o(i.FL_GPIO_SetPinMode)
    i.FL_RCC_EnableGroup1OperationClock      0x00000e18   Section        0  fm33lc0xx_fl_uart.o(i.FL_RCC_EnableGroup1OperationClock)
    FL_RCC_EnableGroup1OperationClock        0x00000e19   Thumb Code    12  fm33lc0xx_fl_uart.o(i.FL_RCC_EnableGroup1OperationClock)
    i.FL_RCC_EnableGroup3BusClock            0x00000e28   Section        0  fm33lc0xx_fl_uart.o(i.FL_RCC_EnableGroup3BusClock)
    FL_RCC_EnableGroup3BusClock              0x00000e29   Thumb Code    12  fm33lc0xx_fl_uart.o(i.FL_RCC_EnableGroup3BusClock)
    i.FL_RCC_GetAHBClockFreq                 0x00000e38   Section        0  fm33lc0xx_fl_rcc.o(i.FL_RCC_GetAHBClockFreq)
    i.FL_RCC_GetAPB1ClockFreq                0x00000eb0   Section        0  fm33lc0xx_fl_rcc.o(i.FL_RCC_GetAPB1ClockFreq)
    i.FL_RCC_GetAPB2ClockFreq                0x00000f28   Section        0  fm33lc0xx_fl_rcc.o(i.FL_RCC_GetAPB2ClockFreq)
    i.FL_RCC_GetPLLClockFreq                 0x00000fa0   Section        0  fm33lc0xx_fl_rcc.o(i.FL_RCC_GetPLLClockFreq)
    i.FL_RCC_GetRC4MClockFreq                0x00001048   Section        0  fm33lc0xx_fl_rcc.o(i.FL_RCC_GetRC4MClockFreq)
    i.FL_RCC_GetRCHFClockFreq                0x00001098   Section        0  fm33lc0xx_fl_rcc.o(i.FL_RCC_GetRCHFClockFreq)
    i.FL_RCC_GetSystemClockFreq              0x000010dc   Section        0  fm33lc0xx_fl_rcc.o(i.FL_RCC_GetSystemClockFreq)
    i.FL_RCC_GetUSBClockFreqToSysclk         0x00001140   Section        0  fm33lc0xx_fl_rcc.o(i.FL_RCC_GetUSBClockFreqToSysclk)
    i.FL_RCC_SetADCPrescaler                 0x00001164   Section        0  adc.o(i.FL_RCC_SetADCPrescaler)
    FL_RCC_SetADCPrescaler                   0x00001165   Thumb Code    18  adc.o(i.FL_RCC_SetADCPrescaler)
    i.FL_UART_Init                           0x0000117c   Section        0  fm33lc0xx_fl_uart.o(i.FL_UART_Init)
    i.GPIO_Init                              0x00001320   Section        0  gpio.o(i.GPIO_Init)
    i.GPIO_ToggleBits                        0x00001394   Section        0  gpio.o(i.GPIO_ToggleBits)
    i.GetConvertSample                       0x000013bc   Section        0  adc.o(i.GetConvertSample)
    i.GetSingleChannelSample_POLL            0x000013e4   Section        0  adc.o(i.GetSingleChannelSample_POLL)
    GetSingleChannelSample_POLL              0x000013e5   Thumb Code   100  adc.o(i.GetSingleChannelSample_POLL)
    i.HardFault_Handler                      0x0000144c   Section        0  main.o(i.HardFault_Handler)
    i.LPTIM_IRQHandler                       0x00001464   Section        0  lptim32_timing.o(i.LPTIM_IRQHandler)
    i.LedInit                                0x00001494   Section        0  user_init.o(i.LedInit)
    i.LedTask                                0x000014f4   Section        0  main.o(i.LedTask)
    i.MF_Clock_Init                          0x00001510   Section        0  mf_config.o(i.MF_Clock_Init)
    i.MF_Config_Init                         0x00001548   Section        0  mf_config.o(i.MF_Config_Init)
    i.MF_SystemClock_Config                  0x0000154a   Section        0  mf_config.o(i.MF_SystemClock_Config)
    i.NVIC_DisableIRQ                        0x0000154c   Section        0  uart.o(i.NVIC_DisableIRQ)
    NVIC_DisableIRQ                          0x0000154d   Thumb Code    18  uart.o(i.NVIC_DisableIRQ)
    i.NVIC_EnableIRQ                         0x00001564   Section        0  uart.o(i.NVIC_EnableIRQ)
    NVIC_EnableIRQ                           0x00001565   Thumb Code    18  uart.o(i.NVIC_EnableIRQ)
    i.NVIC_SetPriority                       0x0000157c   Section        0  uart.o(i.NVIC_SetPriority)
    NVIC_SetPriority                         0x0000157d   Thumb Code   110  uart.o(i.NVIC_SetPriority)
    i.SystemInit                             0x000015f4   Section        0  system_fm33lc0xx.o(i.SystemInit)
    i.SystickInit                            0x00001720   Section        0  user_init.o(i.SystickInit)
    SystickInit                              0x00001721   Thumb Code    26  user_init.o(i.SystickInit)
    i.TimeStart                              0x00001740   Section        0  bstim32_timing.o(i.TimeStart)
    i.TimeStop                               0x0000174c   Section        0  bstim32_timing.o(i.TimeStop)
    i.UARTx_DMA                              0x00001758   Section        0  uart.o(i.UARTx_DMA)
    i.UARTx_DMA_Rx                           0x00001808   Section        0  uart.o(i.UARTx_DMA_Rx)
    i.UartTask                               0x0000188c   Section        0  taskuart.o(i.UartTask)
    i.Uartx_Init                             0x000018e0   Section        0  uart.o(i.Uartx_Init)
    i.UserInit                               0x00001a0c   Section        0  user_init.o(i.UserInit)
    i.__ARM_common_ll_muluu                  0x00001a1c   Section        0  user_init.o(i.__ARM_common_ll_muluu)
    i.__ARM_common_switch8                   0x00001a4c   Section        0  fm33lc0xx_fl_lpuart.o(i.__ARM_common_switch8)
    i._sys_exit                              0x00001a68   Section        0  user_init.o(i._sys_exit)
    i.fputc                                  0x00001a6c   Section        0  user_init.o(i.fputc)
    i.main                                   0x00001a9c   Section        0  main.o(i.main)
    i.prvAddCurrentTaskToDelayedList         0x00001b44   Section        0  tasks.o(i.prvAddCurrentTaskToDelayedList)
    prvAddCurrentTaskToDelayedList           0x00001b45   Thumb Code   100  tasks.o(i.prvAddCurrentTaskToDelayedList)
    i.prvAddNewTaskToReadyList               0x00001bc0   Section        0  tasks.o(i.prvAddNewTaskToReadyList)
    prvAddNewTaskToReadyList                 0x00001bc1   Thumb Code   146  tasks.o(i.prvAddNewTaskToReadyList)
    i.prvCheckTasksWaitingTermination        0x00001c6c   Section        0  tasks.o(i.prvCheckTasksWaitingTermination)
    prvCheckTasksWaitingTermination          0x00001c6d   Thumb Code    60  tasks.o(i.prvCheckTasksWaitingTermination)
    i.prvCopyDataToQueue                     0x00001cb4   Section        0  queue.o(i.prvCopyDataToQueue)
    prvCopyDataToQueue                       0x00001cb5   Thumb Code   128  queue.o(i.prvCopyDataToQueue)
    i.prvDeleteTCB                           0x00001d34   Section        0  tasks.o(i.prvDeleteTCB)
    prvDeleteTCB                             0x00001d35   Thumb Code    18  tasks.o(i.prvDeleteTCB)
    i.prvGetDisinheritPriorityAfterTimeout   0x00001d46   Section        0  queue.o(i.prvGetDisinheritPriorityAfterTimeout)
    prvGetDisinheritPriorityAfterTimeout     0x00001d47   Thumb Code    22  queue.o(i.prvGetDisinheritPriorityAfterTimeout)
    i.prvHeapInit                            0x00001d5c   Section        0  heap_4.o(i.prvHeapInit)
    prvHeapInit                              0x00001d5d   Thumb Code   100  heap_4.o(i.prvHeapInit)
    i.prvIdleTask                            0x00001dd8   Section        0  tasks.o(i.prvIdleTask)
    prvIdleTask                              0x00001dd9   Thumb Code    24  tasks.o(i.prvIdleTask)
    i.prvInitialiseNewQueue                  0x00001df4   Section        0  queue.o(i.prvInitialiseNewQueue)
    prvInitialiseNewQueue                    0x00001df5   Thumb Code    44  queue.o(i.prvInitialiseNewQueue)
    i.prvInitialiseNewTask                   0x00001e20   Section        0  tasks.o(i.prvInitialiseNewTask)
    prvInitialiseNewTask                     0x00001e21   Thumb Code   164  tasks.o(i.prvInitialiseNewTask)
    i.prvInitialiseTaskLists                 0x00001ec4   Section        0  tasks.o(i.prvInitialiseTaskLists)
    prvInitialiseTaskLists                   0x00001ec5   Thumb Code    68  tasks.o(i.prvInitialiseTaskLists)
    i.prvInsertBlockIntoFreeList             0x00001f28   Section        0  heap_4.o(i.prvInsertBlockIntoFreeList)
    prvInsertBlockIntoFreeList               0x00001f29   Thumb Code    96  heap_4.o(i.prvInsertBlockIntoFreeList)
    i.prvIsQueueEmpty                        0x00001f90   Section        0  queue.o(i.prvIsQueueEmpty)
    prvIsQueueEmpty                          0x00001f91   Thumb Code    28  queue.o(i.prvIsQueueEmpty)
    i.prvIsQueueFull                         0x00001fac   Section        0  queue.o(i.prvIsQueueFull)
    prvIsQueueFull                           0x00001fad   Thumb Code    30  queue.o(i.prvIsQueueFull)
    i.prvResetNextTaskUnblockTime            0x00001fcc   Section        0  tasks.o(i.prvResetNextTaskUnblockTime)
    prvResetNextTaskUnblockTime              0x00001fcd   Thumb Code    46  tasks.o(i.prvResetNextTaskUnblockTime)
    i.prvSetupTimerInterrupt                 0x00002004   Section        0  port.o(i.prvSetupTimerInterrupt)
    prvSetupTimerInterrupt                   0x00002005   Thumb Code    18  port.o(i.prvSetupTimerInterrupt)
    i.prvTaskExitError                       0x00002020   Section        0  port.o(i.prvTaskExitError)
    prvTaskExitError                         0x00002021   Thumb Code     6  port.o(i.prvTaskExitError)
    i.prvUnlockQueue                         0x00002026   Section        0  queue.o(i.prvUnlockQueue)
    prvUnlockQueue                           0x00002027   Thumb Code   142  queue.o(i.prvUnlockQueue)
    i.pvPortMalloc                           0x000020b4   Section        0  heap_4.o(i.pvPortMalloc)
    i.pvTaskIncrementMutexHeldCount          0x00002188   Section        0  tasks.o(i.pvTaskIncrementMutexHeldCount)
    i.pxPortInitialiseStack                  0x000021a8   Section        0  port.o(i.pxPortInitialiseStack)
    i.uxListRemove                           0x000021c8   Section        0  list.o(i.uxListRemove)
    i.vApplicationIdleHook                   0x000021f0   Section        0  main.o(i.vApplicationIdleHook)
    i.vListInitialise                        0x000021f2   Section        0  list.o(i.vListInitialise)
    i.vListInitialiseItem                    0x0000220c   Section        0  list.o(i.vListInitialiseItem)
    i.vListInsert                            0x00002212   Section        0  list.o(i.vListInsert)
    i.vListInsertEnd                         0x00002248   Section        0  list.o(i.vListInsertEnd)
    i.vPortEnterCritical                     0x00002260   Section        0  port.o(i.vPortEnterCritical)
    i.vPortExitCritical                      0x0000227c   Section        0  port.o(i.vPortExitCritical)
    i.vPortFree                              0x00002298   Section        0  heap_4.o(i.vPortFree)
    i.vPortYield                             0x000022e8   Section        0  port.o(i.vPortYield)
    i.vTaskDelay                             0x00002300   Section        0  tasks.o(i.vTaskDelay)
    i.vTaskInternalSetTimeOutState           0x00002328   Section        0  tasks.o(i.vTaskInternalSetTimeOutState)
    i.vTaskMissedYield                       0x00002340   Section        0  tasks.o(i.vTaskMissedYield)
    i.vTaskPlaceOnEventList                  0x0000234c   Section        0  tasks.o(i.vTaskPlaceOnEventList)
    i.vTaskPriorityDisinheritAfterTimeout    0x0000236c   Section        0  tasks.o(i.vTaskPriorityDisinheritAfterTimeout)
    i.vTaskStartScheduler                    0x000023f4   Section        0  tasks.o(i.vTaskStartScheduler)
    i.vTaskSuspendAll                        0x00002450   Section        0  tasks.o(i.vTaskSuspendAll)
    i.vTaskSwitchContext                     0x00002460   Section        0  tasks.o(i.vTaskSwitchContext)
    i.xPortStartScheduler                    0x00002514   Section        0  port.o(i.xPortStartScheduler)
    i.xQueueCreateCountingSemaphore          0x0000254c   Section        0  queue.o(i.xQueueCreateCountingSemaphore)
    i.xQueueGenericCreate                    0x00002568   Section        0  queue.o(i.xQueueGenericCreate)
    i.xQueueGenericReset                     0x000025a8   Section        0  queue.o(i.xQueueGenericReset)
    i.xQueueGenericSend                      0x00002620   Section        0  queue.o(i.xQueueGenericSend)
    i.xQueueGiveFromISR                      0x0000271c   Section        0  queue.o(i.xQueueGiveFromISR)
    i.xQueueSemaphoreTake                    0x0000278a   Section        0  queue.o(i.xQueueSemaphoreTake)
    i.xTaskCheckForTimeOut                   0x000028b4   Section        0  tasks.o(i.xTaskCheckForTimeOut)
    i.xTaskCreate                            0x00002914   Section        0  tasks.o(i.xTaskCreate)
    i.xTaskIncrementTick                     0x00002970   Section        0  tasks.o(i.xTaskIncrementTick)
    i.xTaskPriorityDisinherit                0x00002a90   Section        0  tasks.o(i.xTaskPriorityDisinherit)
    i.xTaskPriorityInherit                   0x00002af0   Section        0  tasks.o(i.xTaskPriorityInherit)
    i.xTaskRemoveFromEventList               0x00002b94   Section        0  tasks.o(i.xTaskRemoveFromEventList)
    i.xTaskResumeAll                         0x00002c14   Section        0  tasks.o(i.xTaskResumeAll)
    .constdata                               0x00002cf4   Section       40  _printf_hex_int.o(.constdata)
    uc_hextab                                0x00002cf4   Data          20  _printf_hex_int.o(.constdata)
    lc_hextab                                0x00002d08   Data          20  _printf_hex_int.o(.constdata)
    .data                                    0x20000000   Section        8  adc.o(.data)
    .data                                    0x20000008   Section        4  taskuart.o(.data)
    xHigherPriorityTaskWoken                 0x20000008   Data           4  taskuart.o(.data)
    .data                                    0x2000000c   Section        8  main.o(.data)
    .data                                    0x20000014   Section        4  user_init.o(.data)
    .data                                    0x20000018   Section       68  tasks.o(.data)
    pxDelayedTaskList                        0x2000001c   Data           4  tasks.o(.data)
    pxOverflowDelayedTaskList                0x20000020   Data           4  tasks.o(.data)
    uxDeletedTasksWaitingCleanUp             0x20000024   Data           4  tasks.o(.data)
    uxCurrentNumberOfTasks                   0x20000028   Data           4  tasks.o(.data)
    xTickCount                               0x2000002c   Data           4  tasks.o(.data)
    uxTopReadyPriority                       0x20000030   Data           4  tasks.o(.data)
    xSchedulerRunning                        0x20000034   Data           4  tasks.o(.data)
    uxPendedTicks                            0x20000038   Data           4  tasks.o(.data)
    xYieldPending                            0x2000003c   Data           4  tasks.o(.data)
    xNumOfOverflows                          0x20000040   Data           4  tasks.o(.data)
    uxTaskNumber                             0x20000044   Data           4  tasks.o(.data)
    xNextTaskUnblockTime                     0x20000048   Data           4  tasks.o(.data)
    xIdleTaskHandle                          0x2000004c   Data           4  tasks.o(.data)
    uxSchedulerSuspended                     0x20000050   Data           4  tasks.o(.data)
    ulTaskSwitchedInTime                     0x20000054   Data           4  tasks.o(.data)
    ulTotalRunTime                           0x20000058   Data           4  tasks.o(.data)
    .data                                    0x2000005c   Section       24  heap_4.o(.data)
    xStart                                   0x2000005c   Data           8  heap_4.o(.data)
    pxEnd                                    0x20000064   Data           4  heap_4.o(.data)
    xFreeBytesRemaining                      0x20000068   Data           4  heap_4.o(.data)
    xMinimumEverFreeBytesRemaining           0x2000006c   Data           4  heap_4.o(.data)
    xBlockAllocatedBit                       0x20000070   Data           4  heap_4.o(.data)
    .data                                    0x20000074   Section        4  port.o(.data)
    uxCriticalNesting                        0x20000074   Data           4  port.o(.data)
    .bss                                     0x20000078   Section      100  main.o(.bss)
    .bss                                     0x200000dc   Section      300  tasks.o(.bss)
    pxReadyTasksLists                        0x200000dc   Data         200  tasks.o(.bss)
    xDelayedTaskList1                        0x200001a4   Data          20  tasks.o(.bss)
    xDelayedTaskList2                        0x200001b8   Data          20  tasks.o(.bss)
    xPendingReadyList                        0x200001cc   Data          20  tasks.o(.bss)
    xTasksWaitingTermination                 0x200001e0   Data          20  tasks.o(.bss)
    xSuspendedTaskList                       0x200001f4   Data          20  tasks.o(.bss)
    .bss                                     0x20000208   Section    10240  heap_4.o(.bss)
    ucHeap                                   0x20000208   Data       10240  heap_4.o(.bss)
    .bss                                     0x20002a08   Section       96  libspace.o(.bss)
    HEAP                                     0x20002a68   Section     2048  startup_fm33lc0xx.o(HEAP)
    Heap_Mem                                 0x20002a68   Data        2048  startup_fm33lc0xx.o(HEAP)
    STACK                                    0x20003268   Section     2048  startup_fm33lc0xx.o(STACK)
    Stack_Mem                                0x20003268   Data        2048  startup_fm33lc0xx.o(STACK)
    __initial_sp                             0x20003a68   Data           0  startup_fm33lc0xx.o(STACK)

    Global Symbols

    Symbol Name                              Value     Ov Type        Size  Object(Section)

    BuildAttributes$$THM_ISAv3M$S$PE$A:L22$X:L11$S22$IEEE1$IW$USESV6$~STKCKD$USESV7$~SHL$OSPACE$ROPI$EBA8$UX$STANDARDLIB$REQ8$PRES8$EABIv2 0x00000000   Number         0  anon$$obj.o ABSOLUTE
    __ARM_use_no_argv                        0x00000000   Number         0  main.o ABSOLUTE
    __Vectors                                0x00000000   Data           4  startup_fm33lc0xx.o(RESET)
    __ARM_exceptions_init                     - Undefined Weak Reference
    __alloca_initialize                       - Undefined Weak Reference
    __arm_preinit_                            - Undefined Weak Reference
    __cpp_initialize__aeabi_                  - Undefined Weak Reference
    __cxa_finalize                            - Undefined Weak Reference
    __rt_locale                               - Undefined Weak Reference
    __sigvec_lookup                           - Undefined Weak Reference
    _atexit_init                              - Undefined Weak Reference
    _call_atexit_fns                          - Undefined Weak Reference
    _clock_init                               - Undefined Weak Reference
    _fp_trap_init                             - Undefined Weak Reference
    _fp_trap_shutdown                         - Undefined Weak Reference
    _get_lc_collate                           - Undefined Weak Reference
    _get_lc_ctype                             - Undefined Weak Reference
    _get_lc_monetary                          - Undefined Weak Reference
    _get_lc_numeric                           - Undefined Weak Reference
    _get_lc_time                              - Undefined Weak Reference
    _getenv_init                              - Undefined Weak Reference
    _handle_redirection                       - Undefined Weak Reference
    _init_alloc                               - Undefined Weak Reference
    _init_user_alloc                          - Undefined Weak Reference
    _initio                                   - Undefined Weak Reference
    _mutex_acquire                            - Undefined Weak Reference
    _mutex_release                            - Undefined Weak Reference
    _printf_mbtowc                            - Undefined Weak Reference
    _printf_post_padding                      - Undefined Weak Reference
    _printf_pre_padding                       - Undefined Weak Reference
    _printf_truncate_signed                   - Undefined Weak Reference
    _printf_truncate_unsigned                 - Undefined Weak Reference
    _rand_init                                - Undefined Weak Reference
    _signal_finish                            - Undefined Weak Reference
    _signal_init                              - Undefined Weak Reference
    _terminate_alloc                          - Undefined Weak Reference
    _terminate_user_alloc                     - Undefined Weak Reference
    _terminateio                              - Undefined Weak Reference
    __Vectors_End                            0x000000c0   Data           0  startup_fm33lc0xx.o(RESET)
    __Vectors_Size                           0x000000c0   Number         0  startup_fm33lc0xx.o ABSOLUTE
    __main                                   0x000000c1   Thumb Code     8  __main.o(!!!main)
    __scatterload                            0x000000c9   Thumb Code     0  __scatter.o(!!!scatter)
    __scatterload_rt2                        0x000000c9   Thumb Code    52  __scatter.o(!!!scatter)
    __scatterload_rt2_thumb_only             0x000000c9   Thumb Code     0  __scatter.o(!!!scatter)
    __scatterload_null                       0x000000d9   Thumb Code     0  __scatter.o(!!!scatter)
    __scatterload_copy                       0x00000105   Thumb Code    26  __scatter_copy.o(!!handler_copy)
    __scatterload_zeroinit                   0x00000121   Thumb Code    28  __scatter_zi.o(!!handler_zi)
    _printf_percent                          0x0000013d   Thumb Code     0  _printf_percent.o(.ARM.Collect$$_printf_percent$$00000000)
    _printf_d                                0x0000013f   Thumb Code     0  _printf_d.o(.ARM.Collect$$_printf_percent$$00000009)
    _printf_x                                0x00000149   Thumb Code     0  _printf_x.o(.ARM.Collect$$_printf_percent$$0000000C)
    _printf_percent_end                      0x00000153   Thumb Code     0  _printf_percent_end.o(.ARM.Collect$$_printf_percent$$00000017)
    __rt_lib_init                            0x00000157   Thumb Code     0  libinit.o(.ARM.Collect$$libinit$$00000000)
    __rt_lib_init_alloca_1                   0x00000159   Thumb Code     0  libinit2.o(.ARM.Collect$$libinit$$0000002E)
    __rt_lib_init_argv_1                     0x00000159   Thumb Code     0  libinit2.o(.ARM.Collect$$libinit$$0000002C)
    __rt_lib_init_atexit_1                   0x00000159   Thumb Code     0  libinit2.o(.ARM.Collect$$libinit$$0000001B)
    __rt_lib_init_clock_1                    0x00000159   Thumb Code     0  libinit2.o(.ARM.Collect$$libinit$$00000021)
    __rt_lib_init_cpp_1                      0x00000159   Thumb Code     0  libinit2.o(.ARM.Collect$$libinit$$00000032)
    __rt_lib_init_exceptions_1               0x00000159   Thumb Code     0  libinit2.o(.ARM.Collect$$libinit$$00000030)
    __rt_lib_init_fp_1                       0x00000159   Thumb Code     0  libinit2.o(.ARM.Collect$$libinit$$00000002)
    __rt_lib_init_fp_trap_1                  0x00000159   Thumb Code     0  libinit2.o(.ARM.Collect$$libinit$$0000001F)
    __rt_lib_init_getenv_1                   0x00000159   Thumb Code     0  libinit2.o(.ARM.Collect$$libinit$$00000023)
    __rt_lib_init_heap_1                     0x00000159   Thumb Code     0  libinit2.o(.ARM.Collect$$libinit$$0000000A)
    __rt_lib_init_lc_collate_1               0x00000159   Thumb Code     0  libinit2.o(.ARM.Collect$$libinit$$00000011)
    __rt_lib_init_lc_ctype_1                 0x00000159   Thumb Code     0  libinit2.o(.ARM.Collect$$libinit$$00000013)
    __rt_lib_init_lc_monetary_1              0x00000159   Thumb Code     0  libinit2.o(.ARM.Collect$$libinit$$00000015)
    __rt_lib_init_lc_numeric_1               0x00000159   Thumb Code     0  libinit2.o(.ARM.Collect$$libinit$$00000017)
    __rt_lib_init_lc_time_1                  0x00000159   Thumb Code     0  libinit2.o(.ARM.Collect$$libinit$$00000019)
    __rt_lib_init_preinit_1                  0x00000159   Thumb Code     0  libinit2.o(.ARM.Collect$$libinit$$00000004)
    __rt_lib_init_rand_1                     0x00000159   Thumb Code     0  libinit2.o(.ARM.Collect$$libinit$$0000000E)
    __rt_lib_init_return                     0x00000159   Thumb Code     0  libinit2.o(.ARM.Collect$$libinit$$00000033)
    __rt_lib_init_signal_1                   0x00000159   Thumb Code     0  libinit2.o(.ARM.Collect$$libinit$$0000001D)
    __rt_lib_init_stdio_1                    0x00000159   Thumb Code     0  libinit2.o(.ARM.Collect$$libinit$$00000025)
    __rt_lib_init_user_alloc_1               0x00000159   Thumb Code     0  libinit2.o(.ARM.Collect$$libinit$$0000000C)
    __rt_lib_shutdown                        0x0000015b   Thumb Code     0  libshutdown.o(.ARM.Collect$$libshutdown$$00000000)
    __rt_lib_shutdown_cpp_1                  0x0000015d   Thumb Code     0  libshutdown2.o(.ARM.Collect$$libshutdown$$00000002)
    __rt_lib_shutdown_fp_trap_1              0x0000015d   Thumb Code     0  libshutdown2.o(.ARM.Collect$$libshutdown$$00000007)
    __rt_lib_shutdown_heap_1                 0x0000015d   Thumb Code     0  libshutdown2.o(.ARM.Collect$$libshutdown$$0000000F)
    __rt_lib_shutdown_return                 0x0000015d   Thumb Code     0  libshutdown2.o(.ARM.Collect$$libshutdown$$00000010)
    __rt_lib_shutdown_signal_1               0x0000015d   Thumb Code     0  libshutdown2.o(.ARM.Collect$$libshutdown$$0000000A)
    __rt_lib_shutdown_stdio_1                0x0000015d   Thumb Code     0  libshutdown2.o(.ARM.Collect$$libshutdown$$00000004)
    __rt_lib_shutdown_user_alloc_1           0x0000015d   Thumb Code     0  libshutdown2.o(.ARM.Collect$$libshutdown$$0000000C)
    __rt_entry                               0x0000015f   Thumb Code     0  __rtentry.o(.ARM.Collect$$rtentry$$00000000)
    __rt_entry_presh_1                       0x0000015f   Thumb Code     0  __rtentry2.o(.ARM.Collect$$rtentry$$00000002)
    __rt_entry_sh                            0x0000015f   Thumb Code     0  __rtentry4.o(.ARM.Collect$$rtentry$$00000004)
    __rt_entry_li                            0x00000165   Thumb Code     0  __rtentry2.o(.ARM.Collect$$rtentry$$0000000A)
    __rt_entry_postsh_1                      0x00000165   Thumb Code     0  __rtentry2.o(.ARM.Collect$$rtentry$$00000009)
    __rt_entry_main                          0x00000169   Thumb Code     0  __rtentry2.o(.ARM.Collect$$rtentry$$0000000D)
    __rt_entry_postli_1                      0x00000169   Thumb Code     0  __rtentry2.o(.ARM.Collect$$rtentry$$0000000C)
    __rt_exit                                0x00000171   Thumb Code     0  rtexit.o(.ARM.Collect$$rtexit$$00000000)
    __rt_exit_ls                             0x00000173   Thumb Code     0  rtexit2.o(.ARM.Collect$$rtexit$$00000003)
    __rt_exit_prels_1                        0x00000173   Thumb Code     0  rtexit2.o(.ARM.Collect$$rtexit$$00000002)
    __rt_exit_exit                           0x00000177   Thumb Code     0  rtexit2.o(.ARM.Collect$$rtexit$$00000004)
    __asm___6_port_c_39a90d8d__prvPortStartFirstTask 0x0000017d   Thumb Code    36  port.o(.emb_text)
    ulSetInterruptMaskFromISR                0x000001a5   Thumb Code     8  port.o(.emb_text)
    vClearInterruptMaskFromISR               0x000001ad   Thumb Code     6  port.o(.emb_text)
    xPortPendSVHandler                       0x000001b3   Thumb Code    62  port.o(.emb_text)
    __aeabi_memcpy4                          0x000001f5   Thumb Code    56  rt_memcpy.o(.emb_text)
    __aeabi_memcpy8                          0x000001f5   Thumb Code     0  rt_memcpy.o(.emb_text)
    Reset_Handler                            0x0000022d   Thumb Code     8  startup_fm33lc0xx.o(.text)
    NMI_Handler                              0x00000235   Thumb Code     2  startup_fm33lc0xx.o(.text)
    SVC_Handler                              0x00000239   Thumb Code     2  startup_fm33lc0xx.o(.text)
    PendSV_Handler                           0x0000023b   Thumb Code     2  startup_fm33lc0xx.o(.text)
    SysTick_Handler                          0x0000023d   Thumb Code     2  startup_fm33lc0xx.o(.text)
    AES_IRQHandler                           0x0000023f   Thumb Code     0  startup_fm33lc0xx.o(.text)
    ATIM_IRQHandler                          0x0000023f   Thumb Code     0  startup_fm33lc0xx.o(.text)
    COMPx_IRQHandler                         0x0000023f   Thumb Code     0  startup_fm33lc0xx.o(.text)
    FLASH_IRQHandler                         0x0000023f   Thumb Code     0  startup_fm33lc0xx.o(.text)
    GPIO_IRQHandler                          0x0000023f   Thumb Code     0  startup_fm33lc0xx.o(.text)
    GPTIM0_IRQHandler                        0x0000023f   Thumb Code     0  startup_fm33lc0xx.o(.text)
    GPTIM1_IRQHandler                        0x0000023f   Thumb Code     0  startup_fm33lc0xx.o(.text)
    HFDET_IRQHandler                         0x0000023f   Thumb Code     0  startup_fm33lc0xx.o(.text)
    I2C_IRQHandler                           0x0000023f   Thumb Code     0  startup_fm33lc0xx.o(.text)
    IWDT_IRQHandler                          0x0000023f   Thumb Code     0  startup_fm33lc0xx.o(.text)
    LCD_IRQHandler                           0x0000023f   Thumb Code     0  startup_fm33lc0xx.o(.text)
    LFDET_IRQHandler                         0x0000023f   Thumb Code     0  startup_fm33lc0xx.o(.text)
    LPUART0_IRQHandler                       0x0000023f   Thumb Code     0  startup_fm33lc0xx.o(.text)
    LPUART1_IRQHandler                       0x0000023f   Thumb Code     0  startup_fm33lc0xx.o(.text)
    OPAx_IRQHandler                          0x0000023f   Thumb Code     0  startup_fm33lc0xx.o(.text)
    RTC_IRQHandler                           0x0000023f   Thumb Code     0  startup_fm33lc0xx.o(.text)
    SPI1_IRQHandler                          0x0000023f   Thumb Code     0  startup_fm33lc0xx.o(.text)
    SPI2_IRQHandler                          0x0000023f   Thumb Code     0  startup_fm33lc0xx.o(.text)
    SVD_IRQHandler                           0x0000023f   Thumb Code     0  startup_fm33lc0xx.o(.text)
    U7816_IRQHandler                         0x0000023f   Thumb Code     0  startup_fm33lc0xx.o(.text)
    UART0_IRQHandler                         0x0000023f   Thumb Code     0  startup_fm33lc0xx.o(.text)
    UART1_IRQHandler                         0x0000023f   Thumb Code     0  startup_fm33lc0xx.o(.text)
    UART4_IRQHandler                         0x0000023f   Thumb Code     0  startup_fm33lc0xx.o(.text)
    UART5_IRQHandler                         0x0000023f   Thumb Code     0  startup_fm33lc0xx.o(.text)
    USB_IRQHandler                           0x0000023f   Thumb Code     0  startup_fm33lc0xx.o(.text)
    VREF_IRQHandler                          0x0000023f   Thumb Code     0  startup_fm33lc0xx.o(.text)
    WKUP_IRQHandler                          0x0000023f   Thumb Code     0  startup_fm33lc0xx.o(.text)
    WWDT_IRQHandler                          0x0000023f   Thumb Code     0  startup_fm33lc0xx.o(.text)
    __user_initial_stackheap                 0x00000241   Thumb Code     0  startup_fm33lc0xx.o(.text)
    __use_no_semihosting                     0x00000265   Thumb Code     2  use_no_semi_2.o(.text)
    __aeabi_uldivmod                         0x00000267   Thumb Code   258  lludiv.o(.text)
    _ll_udiv                                 0x00000267   Thumb Code     0  lludiv.o(.text)
    __2printf                                0x00000369   Thumb Code    22  noretval__2printf.o(.text)
    __printf                                 0x00000385   Thumb Code   108  __printf.o(.text)
    _printf_int_dec                          0x000003f1   Thumb Code    90  _printf_dec.o(.text)
    _printf_int_hex                          0x0000045d   Thumb Code    84  _printf_hex_int.o(.text)
    _printf_longlong_hex                     0x0000045d   Thumb Code     0  _printf_hex_int.o(.text)
    __aeabi_memcpy                           0x000004b5   Thumb Code   130  rt_memcpy.o(.text)
    __rt_memcpy                              0x000004b5   Thumb Code     0  rt_memcpy.o(.text)
    __aeabi_memset                           0x00000537   Thumb Code    18  aeabi_memset.o(.text)
    _memset_w                                0x00000549   Thumb Code    26  rt_memclr.o(.text)
    _memset                                  0x00000563   Thumb Code    30  rt_memclr.o(.text)
    __aeabi_memclr                           0x00000581   Thumb Code     4  rt_memclr.o(.text)
    __rt_memclr                              0x00000581   Thumb Code     0  rt_memclr.o(.text)
    __aeabi_memclr4                          0x00000585   Thumb Code     0  rt_memclr.o(.text)
    __aeabi_memclr8                          0x00000585   Thumb Code     0  rt_memclr.o(.text)
    __rt_memclr_w                            0x00000585   Thumb Code     4  rt_memclr.o(.text)
    __aeabi_uidiv                            0x00000589   Thumb Code     0  aeabi_sdiv.o(.text)
    __aeabi_uidivmod                         0x00000589   Thumb Code    20  aeabi_sdiv.o(.text)
    __aeabi_idiv                             0x0000059d   Thumb Code     0  aeabi_sdiv.o(.text)
    __aeabi_idivmod                          0x0000059d   Thumb Code   326  aeabi_sdiv.o(.text)
    __use_two_region_memory                  0x000006e3   Thumb Code     2  heapauxi.o(.text)
    __rt_heap_escrow$2region                 0x000006e5   Thumb Code     2  heapauxi.o(.text)
    __rt_heap_expand$2region                 0x000006e7   Thumb Code     2  heapauxi.o(.text)
    __I$use$semihosting                      0x000006e9   Thumb Code     0  use_no_semi.o(.text)
    __use_no_semihosting_swi                 0x000006e9   Thumb Code     2  use_no_semi.o(.text)
    _printf_int_common                       0x000006eb   Thumb Code   176  _printf_intcommon.o(.text)
    _printf_char_common                      0x000007a7   Thumb Code    32  _printf_char_common.o(.text)
    _printf_char_file                        0x000007cd   Thumb Code    34  _printf_char_file.o(.text)
    __rt_udiv10                              0x000007f5   Thumb Code    40  rtudiv10.o(.text)
    ferror                                   0x0000081d   Thumb Code     8  ferror.o(.text)
    __user_setup_stackheap                   0x00000825   Thumb Code    62  sys_stackheap_outer.o(.text)
    exit                                     0x00000863   Thumb Code    16  exit.o(.text)
    __user_libspace                          0x00000875   Thumb Code     8  libspace.o(.text)
    __user_perproc_libspace                  0x00000875   Thumb Code     0  libspace.o(.text)
    __user_perthread_libspace                0x00000875   Thumb Code     0  libspace.o(.text)
    ADC_IRQHandler                           0x0000087d   Thumb Code    46  adc.o(i.ADC_IRQHandler)
    AdcTask                                  0x000008b5   Thumb Code    66  taskadc.o(i.AdcTask)
    BSTIM_IRQHandler                         0x00000911   Thumb Code    50  bstim32_timing.o(i.BSTIM_IRQHandler)
    DMA_IRQCallBack                          0x00000949   Thumb Code    14  taskuart.o(i.DMA_IRQCallBack)
    DMA_IRQHandler                           0x00000961   Thumb Code    50  uart.o(i.DMA_IRQHandler)
    DebugUartInit                            0x00000999   Thumb Code    88  user_init.o(i.DebugUartInit)
    DelayMs                                  0x000009f9   Thumb Code    24  user_init.o(i.DelayMs)
    DelayUs                                  0x00000a11   Thumb Code    66  user_init.o(i.DelayUs)
    FL_DMA_Init                              0x00000abd   Thumb Code   368  fm33lc0xx_fl_dma.o(i.FL_DMA_Init)
    FL_DMA_StartTransmission                 0x00000c31   Thumb Code   160  fm33lc0xx_fl_dma.o(i.FL_DMA_StartTransmission)
    FL_GPIO_Init                             0x00000d05   Thumb Code   236  fm33lc0xx_fl_gpio.o(i.FL_GPIO_Init)
    FL_RCC_GetAHBClockFreq                   0x00000e39   Thumb Code   114  fm33lc0xx_fl_rcc.o(i.FL_RCC_GetAHBClockFreq)
    FL_RCC_GetAPB1ClockFreq                  0x00000eb1   Thumb Code   114  fm33lc0xx_fl_rcc.o(i.FL_RCC_GetAPB1ClockFreq)
    FL_RCC_GetAPB2ClockFreq                  0x00000f29   Thumb Code   114  fm33lc0xx_fl_rcc.o(i.FL_RCC_GetAPB2ClockFreq)
    FL_RCC_GetPLLClockFreq                   0x00000fa1   Thumb Code   160  fm33lc0xx_fl_rcc.o(i.FL_RCC_GetPLLClockFreq)
    FL_RCC_GetRC4MClockFreq                  0x00001049   Thumb Code    60  fm33lc0xx_fl_rcc.o(i.FL_RCC_GetRC4MClockFreq)
    FL_RCC_GetRCHFClockFreq                  0x00001099   Thumb Code    52  fm33lc0xx_fl_rcc.o(i.FL_RCC_GetRCHFClockFreq)
    FL_RCC_GetSystemClockFreq                0x000010dd   Thumb Code    92  fm33lc0xx_fl_rcc.o(i.FL_RCC_GetSystemClockFreq)
    FL_RCC_GetUSBClockFreqToSysclk           0x00001141   Thumb Code    22  fm33lc0xx_fl_rcc.o(i.FL_RCC_GetUSBClockFreqToSysclk)
    FL_UART_Init                             0x0000117d   Thumb Code   398  fm33lc0xx_fl_uart.o(i.FL_UART_Init)
    GPIO_Init                                0x00001321   Thumb Code   112  gpio.o(i.GPIO_Init)
    GPIO_ToggleBits                          0x00001395   Thumb Code    38  gpio.o(i.GPIO_ToggleBits)
    GetConvertSample                         0x000013bd   Thumb Code    34  adc.o(i.GetConvertSample)
    HardFault_Handler                        0x0000144d   Thumb Code    10  main.o(i.HardFault_Handler)
    LPTIM_IRQHandler                         0x00001465   Thumb Code    44  lptim32_timing.o(i.LPTIM_IRQHandler)
    LedInit                                  0x00001495   Thumb Code    92  user_init.o(i.LedInit)
    LedTask                                  0x000014f5   Thumb Code    22  main.o(i.LedTask)
    MF_Clock_Init                            0x00001511   Thumb Code    48  mf_config.o(i.MF_Clock_Init)
    MF_Config_Init                           0x00001549   Thumb Code     2  mf_config.o(i.MF_Config_Init)
    MF_SystemClock_Config                    0x0000154b   Thumb Code     2  mf_config.o(i.MF_SystemClock_Config)
    SystemInit                               0x000015f5   Thumb Code   278  system_fm33lc0xx.o(i.SystemInit)
    TimeStart                                0x00001741   Thumb Code     8  bstim32_timing.o(i.TimeStart)
    TimeStop                                 0x0000174d   Thumb Code     6  bstim32_timing.o(i.TimeStop)
    UARTx_DMA                                0x00001759   Thumb Code   166  uart.o(i.UARTx_DMA)
    UARTx_DMA_Rx                             0x00001809   Thumb Code   122  uart.o(i.UARTx_DMA_Rx)
    UartTask                                 0x0000188d   Thumb Code    54  taskuart.o(i.UartTask)
    Uartx_Init                               0x000018e1   Thumb Code   292  uart.o(i.Uartx_Init)
    UserInit                                 0x00001a0d   Thumb Code    16  user_init.o(i.UserInit)
    __ARM_common_ll_muluu                    0x00001a1d   Thumb Code    48  user_init.o(i.__ARM_common_ll_muluu)
    __ARM_common_switch8                     0x00001a4d   Thumb Code    28  fm33lc0xx_fl_lpuart.o(i.__ARM_common_switch8)
    _sys_exit                                0x00001a69   Thumb Code     4  user_init.o(i._sys_exit)
    fputc                                    0x00001a6d   Thumb Code    42  user_init.o(i.fputc)
    main                                     0x00001a9d   Thumb Code   124  main.o(i.main)
    pvPortMalloc                             0x000020b5   Thumb Code   190  heap_4.o(i.pvPortMalloc)
    pvTaskIncrementMutexHeldCount            0x00002189   Thumb Code    28  tasks.o(i.pvTaskIncrementMutexHeldCount)
    pxPortInitialiseStack                    0x000021a9   Thumb Code    26  port.o(i.pxPortInitialiseStack)
    uxListRemove                             0x000021c9   Thumb Code    40  list.o(i.uxListRemove)
    vApplicationIdleHook                     0x000021f1   Thumb Code     2  main.o(i.vApplicationIdleHook)
    vListInitialise                          0x000021f3   Thumb Code    26  list.o(i.vListInitialise)
    vListInitialiseItem                      0x0000220d   Thumb Code     6  list.o(i.vListInitialiseItem)
    vListInsert                              0x00002213   Thumb Code    54  list.o(i.vListInsert)
    vListInsertEnd                           0x00002249   Thumb Code    24  list.o(i.vListInsertEnd)
    vPortEnterCritical                       0x00002261   Thumb Code    22  port.o(i.vPortEnterCritical)
    vPortExitCritical                        0x0000227d   Thumb Code    22  port.o(i.vPortExitCritical)
    vPortFree                                0x00002299   Thumb Code    70  heap_4.o(i.vPortFree)
    vPortYield                               0x000022e9   Thumb Code    18  port.o(i.vPortYield)
    vTaskDelay                               0x00002301   Thumb Code    38  tasks.o(i.vTaskDelay)
    vTaskInternalSetTimeOutState             0x00002329   Thumb Code    14  tasks.o(i.vTaskInternalSetTimeOutState)
    vTaskMissedYield                         0x00002341   Thumb Code     8  tasks.o(i.vTaskMissedYield)
    vTaskPlaceOnEventList                    0x0000234d   Thumb Code    28  tasks.o(i.vTaskPlaceOnEventList)
    vTaskPriorityDisinheritAfterTimeout      0x0000236d   Thumb Code   128  tasks.o(i.vTaskPriorityDisinheritAfterTimeout)
    vTaskStartScheduler                      0x000023f5   Thumb Code    62  tasks.o(i.vTaskStartScheduler)
    vTaskSuspendAll                          0x00002451   Thumb Code    12  tasks.o(i.vTaskSuspendAll)
    vTaskSwitchContext                       0x00002461   Thumb Code   152  tasks.o(i.vTaskSwitchContext)
    xPortStartScheduler                      0x00002515   Thumb Code    48  port.o(i.xPortStartScheduler)
    xQueueCreateCountingSemaphore            0x0000254d   Thumb Code    28  queue.o(i.xQueueCreateCountingSemaphore)
    xQueueGenericCreate                      0x00002569   Thumb Code    64  queue.o(i.xQueueGenericCreate)
    xQueueGenericReset                       0x000025a9   Thumb Code   120  queue.o(i.xQueueGenericReset)
    xQueueGenericSend                        0x00002621   Thumb Code   252  queue.o(i.xQueueGenericSend)
    xQueueGiveFromISR                        0x0000271d   Thumb Code   110  queue.o(i.xQueueGiveFromISR)
    xQueueSemaphoreTake                      0x0000278b   Thumb Code   298  queue.o(i.xQueueSemaphoreTake)
    xTaskCheckForTimeOut                     0x000028b5   Thumb Code    86  tasks.o(i.xTaskCheckForTimeOut)
    xTaskCreate                              0x00002915   Thumb Code    92  tasks.o(i.xTaskCreate)
    xTaskIncrementTick                       0x00002971   Thumb Code   242  tasks.o(i.xTaskIncrementTick)
    xTaskPriorityDisinherit                  0x00002a91   Thumb Code    88  tasks.o(i.xTaskPriorityDisinherit)
    xTaskPriorityInherit                     0x00002af1   Thumb Code   150  tasks.o(i.xTaskPriorityInherit)
    xTaskRemoveFromEventList                 0x00002b95   Thumb Code   102  tasks.o(i.xTaskRemoveFromEventList)
    xTaskResumeAll                           0x00002c15   Thumb Code   192  tasks.o(i.xTaskResumeAll)
    Region$$Table$$Base                      0x00002d1c   Number         0  anon$$obj.o(Region$$Table)
    Region$$Table$$Limit                     0x00002d3c   Number         0  anon$$obj.o(Region$$Table)
    ADCComplete                              0x20000000   Data           1  adc.o(.data)
    ADCbuffer                                0x20000002   Data           6  adc.o(.data)
    ADC_QueueHandle                          0x2000000c   Data           4  main.o(.data)
    dmaSemaphore                             0x20000010   Data           4  main.o(.data)
    __stdout                                 0x20000014   Data           4  user_init.o(.data)
    pxCurrentTCB                             0x20000018   Data           4  tasks.o(.data)
    TestRxData                               0x20000078   Data         100  main.o(.bss)
    __libspace_start                         0x20002a08   Data          96  libspace.o(.bss)
    __temporary_stack_top$libspace           0x20002a68   Data           0  libspace.o(.bss)



==============================================================================

Memory Map of the image

  Image Entry point : 0x000000c1

  Load Region LR_IROM1 (Base: 0x00000000, Size: 0x00002db4, Max: 0x00040000, ABSOLUTE)

    Execution Region ER_IROM1 (Exec base: 0x00000000, Load base: 0x00000000, Size: 0x00002d3c, Max: 0x00040000, ABSOLUTE)

    Exec Addr    Load Addr    Size         Type   Attr      Idx    E Section Name        Object

    0x00000000   0x00000000   0x000000c0   Data   RO            3    RESET               startup_fm33lc0xx.o
    0x000000c0   0x000000c0   0x00000008   Code   RO         3206  * !!!main             c_p.l(__main.o)
    0x000000c8   0x000000c8   0x0000003c   Code   RO         3427    !!!scatter          c_p.l(__scatter.o)
    0x00000104   0x00000104   0x0000001a   Code   RO         3429    !!handler_copy      c_p.l(__scatter_copy.o)
    0x0000011e   0x0000011e   0x00000002   PAD
    0x00000120   0x00000120   0x0000001c   Code   RO         3431    !!handler_zi        c_p.l(__scatter_zi.o)
    0x0000013c   0x0000013c   0x00000002   Code   RO         3187    .ARM.Collect$$_printf_percent$$00000000  c_p.l(_printf_percent.o)
    0x0000013e   0x0000013e   0x0000000a   Code   RO         3185    .ARM.Collect$$_printf_percent$$00000009  c_p.l(_printf_d.o)
    0x00000148   0x00000148   0x0000000a   Code   RO         3184    .ARM.Collect$$_printf_percent$$0000000C  c_p.l(_printf_x.o)
    0x00000152   0x00000152   0x00000004   Code   RO         3251    .ARM.Collect$$_printf_percent$$00000017  c_p.l(_printf_percent_end.o)
    0x00000156   0x00000156   0x00000002   Code   RO         3298    .ARM.Collect$$libinit$$00000000  c_p.l(libinit.o)
    0x00000158   0x00000158   0x00000000   Code   RO         3314    .ARM.Collect$$libinit$$00000002  c_p.l(libinit2.o)
    0x00000158   0x00000158   0x00000000   Code   RO         3316    .ARM.Collect$$libinit$$00000004  c_p.l(libinit2.o)
    0x00000158   0x00000158   0x00000000   Code   RO         3319    .ARM.Collect$$libinit$$0000000A  c_p.l(libinit2.o)
    0x00000158   0x00000158   0x00000000   Code   RO         3321    .ARM.Collect$$libinit$$0000000C  c_p.l(libinit2.o)
    0x00000158   0x00000158   0x00000000   Code   RO         3323    .ARM.Collect$$libinit$$0000000E  c_p.l(libinit2.o)
    0x00000158   0x00000158   0x00000000   Code   RO         3326    .ARM.Collect$$libinit$$00000011  c_p.l(libinit2.o)
    0x00000158   0x00000158   0x00000000   Code   RO         3328    .ARM.Collect$$libinit$$00000013  c_p.l(libinit2.o)
    0x00000158   0x00000158   0x00000000   Code   RO         3330    .ARM.Collect$$libinit$$00000015  c_p.l(libinit2.o)
    0x00000158   0x00000158   0x00000000   Code   RO         3332    .ARM.Collect$$libinit$$00000017  c_p.l(libinit2.o)
    0x00000158   0x00000158   0x00000000   Code   RO         3334    .ARM.Collect$$libinit$$00000019  c_p.l(libinit2.o)
    0x00000158   0x00000158   0x00000000   Code   RO         3336    .ARM.Collect$$libinit$$0000001B  c_p.l(libinit2.o)
    0x00000158   0x00000158   0x00000000   Code   RO         3338    .ARM.Collect$$libinit$$0000001D  c_p.l(libinit2.o)
    0x00000158   0x00000158   0x00000000   Code   RO         3340    .ARM.Collect$$libinit$$0000001F  c_p.l(libinit2.o)
    0x00000158   0x00000158   0x00000000   Code   RO         3342    .ARM.Collect$$libinit$$00000021  c_p.l(libinit2.o)
    0x00000158   0x00000158   0x00000000   Code   RO         3344    .ARM.Collect$$libinit$$00000023  c_p.l(libinit2.o)
    0x00000158   0x00000158   0x00000000   Code   RO         3346    .ARM.Collect$$libinit$$00000025  c_p.l(libinit2.o)
    0x00000158   0x00000158   0x00000000   Code   RO         3350    .ARM.Collect$$libinit$$0000002C  c_p.l(libinit2.o)
    0x00000158   0x00000158   0x00000000   Code   RO         3352    .ARM.Collect$$libinit$$0000002E  c_p.l(libinit2.o)
    0x00000158   0x00000158   0x00000000   Code   RO         3354    .ARM.Collect$$libinit$$00000030  c_p.l(libinit2.o)
    0x00000158   0x00000158   0x00000000   Code   RO         3356    .ARM.Collect$$libinit$$00000032  c_p.l(libinit2.o)
    0x00000158   0x00000158   0x00000002   Code   RO         3357    .ARM.Collect$$libinit$$00000033  c_p.l(libinit2.o)
    0x0000015a   0x0000015a   0x00000002   Code   RO         3383    .ARM.Collect$$libshutdown$$00000000  c_p.l(libshutdown.o)
    0x0000015c   0x0000015c   0x00000000   Code   RO         3410    .ARM.Collect$$libshutdown$$00000002  c_p.l(libshutdown2.o)
    0x0000015c   0x0000015c   0x00000000   Code   RO         3412    .ARM.Collect$$libshutdown$$00000004  c_p.l(libshutdown2.o)
    0x0000015c   0x0000015c   0x00000000   Code   RO         3415    .ARM.Collect$$libshutdown$$00000007  c_p.l(libshutdown2.o)
    0x0000015c   0x0000015c   0x00000000   Code   RO         3418    .ARM.Collect$$libshutdown$$0000000A  c_p.l(libshutdown2.o)
    0x0000015c   0x0000015c   0x00000000   Code   RO         3420    .ARM.Collect$$libshutdown$$0000000C  c_p.l(libshutdown2.o)
    0x0000015c   0x0000015c   0x00000000   Code   RO         3423    .ARM.Collect$$libshutdown$$0000000F  c_p.l(libshutdown2.o)
    0x0000015c   0x0000015c   0x00000002   Code   RO         3424    .ARM.Collect$$libshutdown$$00000010  c_p.l(libshutdown2.o)
    0x0000015e   0x0000015e   0x00000000   Code   RO         3232    .ARM.Collect$$rtentry$$00000000  c_p.l(__rtentry.o)
    0x0000015e   0x0000015e   0x00000000   Code   RO         3258    .ARM.Collect$$rtentry$$00000002  c_p.l(__rtentry2.o)
    0x0000015e   0x0000015e   0x00000006   Code   RO         3270    .ARM.Collect$$rtentry$$00000004  c_p.l(__rtentry4.o)
    0x00000164   0x00000164   0x00000000   Code   RO         3260    .ARM.Collect$$rtentry$$00000009  c_p.l(__rtentry2.o)
    0x00000164   0x00000164   0x00000004   Code   RO         3261    .ARM.Collect$$rtentry$$0000000A  c_p.l(__rtentry2.o)
    0x00000168   0x00000168   0x00000000   Code   RO         3263    .ARM.Collect$$rtentry$$0000000C  c_p.l(__rtentry2.o)
    0x00000168   0x00000168   0x00000008   Code   RO         3264    .ARM.Collect$$rtentry$$0000000D  c_p.l(__rtentry2.o)
    0x00000170   0x00000170   0x00000002   Code   RO         3305    .ARM.Collect$$rtexit$$00000000  c_p.l(rtexit.o)
    0x00000172   0x00000172   0x00000000   Code   RO         3359    .ARM.Collect$$rtexit$$00000002  c_p.l(rtexit2.o)
    0x00000172   0x00000172   0x00000004   Code   RO         3360    .ARM.Collect$$rtexit$$00000003  c_p.l(rtexit2.o)
    0x00000176   0x00000176   0x00000006   Code   RO         3361    .ARM.Collect$$rtexit$$00000004  c_p.l(rtexit2.o)
    0x0000017c   0x0000017c   0x00000078   Code   RO         3050    .emb_text           port.o
    0x000001f4   0x000001f4   0x00000038   Code   RO         3192    .emb_text           c_p.l(rt_memcpy.o)
    0x0000022c   0x0000022c   0x00000038   Code   RO            4    .text               startup_fm33lc0xx.o
    0x00000264   0x00000264   0x00000002   Code   RO         3122    .text               c_p.l(use_no_semi_2.o)
    0x00000266   0x00000266   0x00000102   Code   RO         3126    .text               c_p.l(lludiv.o)
    0x00000368   0x00000368   0x0000001c   Code   RO         3132    .text               c_p.l(noretval__2printf.o)
    0x00000384   0x00000384   0x0000006c   Code   RO         3136    .text               c_p.l(__printf.o)
    0x000003f0   0x000003f0   0x0000006c   Code   RO         3140    .text               c_p.l(_printf_dec.o)
    0x0000045c   0x0000045c   0x00000058   Code   RO         3145    .text               c_p.l(_printf_hex_int.o)
    0x000004b4   0x000004b4   0x00000082   Code   RO         3193    .text               c_p.l(rt_memcpy.o)
    0x00000536   0x00000536   0x00000012   Code   RO         3196    .text               c_p.l(aeabi_memset.o)
    0x00000548   0x00000548   0x00000040   Code   RO         3198    .text               c_p.l(rt_memclr.o)
    0x00000588   0x00000588   0x0000015a   Code   RO         3200    .text               c_p.l(aeabi_sdiv.o)
    0x000006e2   0x000006e2   0x00000006   Code   RO         3204    .text               c_p.l(heapauxi.o)
    0x000006e8   0x000006e8   0x00000002   Code   RO         3230    .text               c_p.l(use_no_semi.o)
    0x000006ea   0x000006ea   0x000000b0   Code   RO         3241    .text               c_p.l(_printf_intcommon.o)
    0x0000079a   0x0000079a   0x00000002   PAD
    0x0000079c   0x0000079c   0x00000030   Code   RO         3243    .text               c_p.l(_printf_char_common.o)
    0x000007cc   0x000007cc   0x00000028   Code   RO         3249    .text               c_p.l(_printf_char_file.o)
    0x000007f4   0x000007f4   0x00000028   Code   RO         3252    .text               c_p.l(rtudiv10.o)
    0x0000081c   0x0000081c   0x00000008   Code   RO         3276    .text               c_p.l(ferror.o)
    0x00000824   0x00000824   0x0000003e   Code   RO         3284    .text               c_p.l(sys_stackheap_outer.o)
    0x00000862   0x00000862   0x00000010   Code   RO         3287    .text               c_p.l(exit.o)
    0x00000872   0x00000872   0x00000002   PAD
    0x00000874   0x00000874   0x00000008   Code   RO         3301    .text               c_p.l(libspace.o)
    0x0000087c   0x0000087c   0x00000038   Code   RO          163    i.ADC_IRQHandler    adc.o
    0x000008b4   0x000008b4   0x0000005c   Code   RO          592    i.AdcTask           taskadc.o
    0x00000910   0x00000910   0x00000038   Code   RO          349    i.BSTIM_IRQHandler  bstim32_timing.o
    0x00000948   0x00000948   0x00000018   Code   RO          520    i.DMA_IRQCallBack   taskuart.o
    0x00000960   0x00000960   0x00000038   Code   RO          438    i.DMA_IRQHandler    uart.o
    0x00000998   0x00000998   0x00000060   Code   RO          659    i.DebugUartInit     user_init.o
    0x000009f8   0x000009f8   0x00000018   Code   RO          660    i.DelayMs           user_init.o
    0x00000a10   0x00000a10   0x0000004c   Code   RO          661    i.DelayUs           user_init.o
    0x00000a5c   0x00000a5c   0x00000006   Code   RO          164    i.FL_ADC_ClearFlag_EndOfConversion  adc.o
    0x00000a62   0x00000a62   0x0000000a   Code   RO          165    i.FL_ADC_Disable    adc.o
    0x00000a6c   0x00000a6c   0x0000000c   Code   RO          166    i.FL_ADC_DisableSequencerChannel  adc.o
    0x00000a78   0x00000a78   0x0000000a   Code   RO          167    i.FL_ADC_Enable     adc.o
    0x00000a82   0x00000a82   0x0000000a   Code   RO          168    i.FL_ADC_EnableSWConversion  adc.o
    0x00000a8c   0x00000a8c   0x0000000c   Code   RO          169    i.FL_ADC_EnableSequencerChannel  adc.o
    0x00000a98   0x00000a98   0x00000010   Code   RO          170    i.FL_ADC_IsActiveFlag_EndOfConversion  adc.o
    0x00000aa8   0x00000aa8   0x00000008   Code   RO          171    i.FL_ADC_ReadConversionData  adc.o
    0x00000ab0   0x00000ab0   0x0000000a   Code   RO          440    i.FL_DMA_ClearFlag_TransferComplete  uart.o
    0x00000aba   0x00000aba   0x00000002   PAD
    0x00000abc   0x00000abc   0x00000174   Code   RO         1178    i.FL_DMA_Init       fm33lc0xx_fl_dma.o
    0x00000c30   0x00000c30   0x000000a0   Code   RO         1179    i.FL_DMA_StartTransmission  fm33lc0xx_fl_dma.o
    0x00000cd0   0x00000cd0   0x0000000a   Code   RO         1416    i.FL_GPIO_DisablePinAnalogSwitch  fm33lc0xx_fl_gpio.o
    0x00000cda   0x00000cda   0x0000000a   Code   RO         1417    i.FL_GPIO_DisablePinInput  fm33lc0xx_fl_gpio.o
    0x00000ce4   0x00000ce4   0x0000000a   Code   RO         1418    i.FL_GPIO_DisablePinOpenDrain  fm33lc0xx_fl_gpio.o
    0x00000cee   0x00000cee   0x0000000a   Code   RO         1419    i.FL_GPIO_DisablePinPullup  fm33lc0xx_fl_gpio.o
    0x00000cf8   0x00000cf8   0x0000000a   Code   RO         1420    i.FL_GPIO_DisablePinRemap  fm33lc0xx_fl_gpio.o
    0x00000d02   0x00000d02   0x00000002   PAD
    0x00000d04   0x00000d04   0x000000f0   Code   RO         1422    i.FL_GPIO_Init      fm33lc0xx_fl_gpio.o
    0x00000df4   0x00000df4   0x0000000a   Code   RO          662    i.FL_GPIO_ResetOutputPin  user_init.o
    0x00000dfe   0x00000dfe   0x0000001a   Code   RO         1423    i.FL_GPIO_SetPinMode  fm33lc0xx_fl_gpio.o
    0x00000e18   0x00000e18   0x00000010   Code   RO         2268    i.FL_RCC_EnableGroup1OperationClock  fm33lc0xx_fl_uart.o
    0x00000e28   0x00000e28   0x00000010   Code   RO         2269    i.FL_RCC_EnableGroup3BusClock  fm33lc0xx_fl_uart.o
    0x00000e38   0x00000e38   0x00000078   Code   RO         1972    i.FL_RCC_GetAHBClockFreq  fm33lc0xx_fl_rcc.o
    0x00000eb0   0x00000eb0   0x00000078   Code   RO         1973    i.FL_RCC_GetAPB1ClockFreq  fm33lc0xx_fl_rcc.o
    0x00000f28   0x00000f28   0x00000078   Code   RO         1974    i.FL_RCC_GetAPB2ClockFreq  fm33lc0xx_fl_rcc.o
    0x00000fa0   0x00000fa0   0x000000a8   Code   RO         1975    i.FL_RCC_GetPLLClockFreq  fm33lc0xx_fl_rcc.o
    0x00001048   0x00001048   0x00000050   Code   RO         1976    i.FL_RCC_GetRC4MClockFreq  fm33lc0xx_fl_rcc.o
    0x00001098   0x00001098   0x00000044   Code   RO         1977    i.FL_RCC_GetRCHFClockFreq  fm33lc0xx_fl_rcc.o
    0x000010dc   0x000010dc   0x00000064   Code   RO         1978    i.FL_RCC_GetSystemClockFreq  fm33lc0xx_fl_rcc.o
    0x00001140   0x00001140   0x00000024   Code   RO         1979    i.FL_RCC_GetUSBClockFreqToSysclk  fm33lc0xx_fl_rcc.o
    0x00001164   0x00001164   0x00000018   Code   RO          172    i.FL_RCC_SetADCPrescaler  adc.o
    0x0000117c   0x0000117c   0x000001a4   Code   RO         2275    i.FL_UART_Init      fm33lc0xx_fl_uart.o
    0x00001320   0x00001320   0x00000074   Code   RO          560    i.GPIO_Init         gpio.o
    0x00001394   0x00001394   0x00000026   Code   RO          561    i.GPIO_ToggleBits   gpio.o
    0x000013ba   0x000013ba   0x00000002   PAD
    0x000013bc   0x000013bc   0x00000028   Code   RO          175    i.GetConvertSample  adc.o
    0x000013e4   0x000013e4   0x00000068   Code   RO          177    i.GetSingleChannelSample_POLL  adc.o
    0x0000144c   0x0000144c   0x00000018   Code   RO          613    i.HardFault_Handler  main.o
    0x00001464   0x00001464   0x00000030   Code   RO          402    i.LPTIM_IRQHandler  lptim32_timing.o
    0x00001494   0x00001494   0x00000060   Code   RO          665    i.LedInit           user_init.o
    0x000014f4   0x000014f4   0x0000001c   Code   RO          614    i.LedTask           main.o
    0x00001510   0x00001510   0x00000038   Code   RO           13    i.MF_Clock_Init     mf_config.o
    0x00001548   0x00001548   0x00000002   Code   RO           14    i.MF_Config_Init    mf_config.o
    0x0000154a   0x0000154a   0x00000002   Code   RO           15    i.MF_SystemClock_Config  mf_config.o
    0x0000154c   0x0000154c   0x00000018   Code   RO          441    i.NVIC_DisableIRQ   uart.o
    0x00001564   0x00001564   0x00000018   Code   RO          442    i.NVIC_EnableIRQ    uart.o
    0x0000157c   0x0000157c   0x00000078   Code   RO          443    i.NVIC_SetPriority  uart.o
    0x000015f4   0x000015f4   0x0000012c   Code   RO          762    i.SystemInit        system_fm33lc0xx.o
    0x00001720   0x00001720   0x00000020   Code   RO          666    i.SystickInit       user_init.o
    0x00001740   0x00001740   0x0000000c   Code   RO          350    i.TimeStart         bstim32_timing.o
    0x0000174c   0x0000174c   0x0000000c   Code   RO          351    i.TimeStop          bstim32_timing.o
    0x00001758   0x00001758   0x000000b0   Code   RO          444    i.UARTx_DMA         uart.o
    0x00001808   0x00001808   0x00000084   Code   RO          445    i.UARTx_DMA_Rx      uart.o
    0x0000188c   0x0000188c   0x00000054   Code   RO          521    i.UartTask          taskuart.o
    0x000018e0   0x000018e0   0x0000012c   Code   RO          446    i.Uartx_Init        uart.o
    0x00001a0c   0x00001a0c   0x00000010   Code   RO          667    i.UserInit          user_init.o
    0x00001a1c   0x00001a1c   0x00000030   Code   RO          739    i.__ARM_common_ll_muluu  user_init.o
    0x00001a4c   0x00001a4c   0x0000001c   Code   RO         1886    i.__ARM_common_switch8  fm33lc0xx_fl_lpuart.o
    0x00001a68   0x00001a68   0x00000004   Code   RO          668    i._sys_exit         user_init.o
    0x00001a6c   0x00001a6c   0x00000030   Code   RO          669    i.fputc             user_init.o
    0x00001a9c   0x00001a9c   0x000000a8   Code   RO          615    i.main              main.o
    0x00001b44   0x00001b44   0x0000007c   Code   RO         2632    i.prvAddCurrentTaskToDelayedList  tasks.o
    0x00001bc0   0x00001bc0   0x000000ac   Code   RO         2633    i.prvAddNewTaskToReadyList  tasks.o
    0x00001c6c   0x00001c6c   0x00000048   Code   RO         2634    i.prvCheckTasksWaitingTermination  tasks.o
    0x00001cb4   0x00001cb4   0x00000080   Code   RO         2453    i.prvCopyDataToQueue  queue.o
    0x00001d34   0x00001d34   0x00000012   Code   RO         2635    i.prvDeleteTCB      tasks.o
    0x00001d46   0x00001d46   0x00000016   Code   RO         2454    i.prvGetDisinheritPriorityAfterTimeout  queue.o
    0x00001d5c   0x00001d5c   0x0000007c   Code   RO         3001    i.prvHeapInit       heap_4.o
    0x00001dd8   0x00001dd8   0x0000001c   Code   RO         2636    i.prvIdleTask       tasks.o
    0x00001df4   0x00001df4   0x0000002c   Code   RO         2456    i.prvInitialiseNewQueue  queue.o
    0x00001e20   0x00001e20   0x000000a4   Code   RO         2637    i.prvInitialiseNewTask  tasks.o
    0x00001ec4   0x00001ec4   0x00000064   Code   RO         2638    i.prvInitialiseTaskLists  tasks.o
    0x00001f28   0x00001f28   0x00000068   Code   RO         3002    i.prvInsertBlockIntoFreeList  heap_4.o
    0x00001f90   0x00001f90   0x0000001c   Code   RO         2457    i.prvIsQueueEmpty   queue.o
    0x00001fac   0x00001fac   0x0000001e   Code   RO         2458    i.prvIsQueueFull    queue.o
    0x00001fca   0x00001fca   0x00000002   PAD
    0x00001fcc   0x00001fcc   0x00000038   Code   RO         2640    i.prvResetNextTaskUnblockTime  tasks.o
    0x00002004   0x00002004   0x0000001c   Code   RO         3051    i.prvSetupTimerInterrupt  port.o
    0x00002020   0x00002020   0x00000006   Code   RO         3052    i.prvTaskExitError  port.o
    0x00002026   0x00002026   0x0000008e   Code   RO         2459    i.prvUnlockQueue    queue.o
    0x000020b4   0x000020b4   0x000000d4   Code   RO         3003    i.pvPortMalloc      heap_4.o
    0x00002188   0x00002188   0x00000020   Code   RO         2644    i.pvTaskIncrementMutexHeldCount  tasks.o
    0x000021a8   0x000021a8   0x00000020   Code   RO         3053    i.pxPortInitialiseStack  port.o
    0x000021c8   0x000021c8   0x00000028   Code   RO         2404    i.uxListRemove      list.o
    0x000021f0   0x000021f0   0x00000002   Code   RO          616    i.vApplicationIdleHook  main.o
    0x000021f2   0x000021f2   0x0000001a   Code   RO         2405    i.vListInitialise   list.o
    0x0000220c   0x0000220c   0x00000006   Code   RO         2406    i.vListInitialiseItem  list.o
    0x00002212   0x00002212   0x00000036   Code   RO         2407    i.vListInsert       list.o
    0x00002248   0x00002248   0x00000018   Code   RO         2408    i.vListInsertEnd    list.o
    0x00002260   0x00002260   0x0000001c   Code   RO         3055    i.vPortEnterCritical  port.o
    0x0000227c   0x0000227c   0x0000001c   Code   RO         3056    i.vPortExitCritical  port.o
    0x00002298   0x00002298   0x00000050   Code   RO         3004    i.vPortFree         heap_4.o
    0x000022e8   0x000022e8   0x00000018   Code   RO         3058    i.vPortYield        port.o
    0x00002300   0x00002300   0x00000026   Code   RO         2652    i.vTaskDelay        tasks.o
    0x00002326   0x00002326   0x00000002   PAD
    0x00002328   0x00002328   0x00000018   Code   RO         2658    i.vTaskInternalSetTimeOutState  tasks.o
    0x00002340   0x00002340   0x0000000c   Code   RO         2660    i.vTaskMissedYield  tasks.o
    0x0000234c   0x0000234c   0x00000020   Code   RO         2662    i.vTaskPlaceOnEventList  tasks.o
    0x0000236c   0x0000236c   0x00000088   Code   RO         2664    i.vTaskPriorityDisinheritAfterTimeout  tasks.o
    0x000023f4   0x000023f4   0x0000005c   Code   RO         2670    i.vTaskStartScheduler  tasks.o
    0x00002450   0x00002450   0x00000010   Code   RO         2672    i.vTaskSuspendAll   tasks.o
    0x00002460   0x00002460   0x000000b4   Code   RO         2673    i.vTaskSwitchContext  tasks.o
    0x00002514   0x00002514   0x00000038   Code   RO         3059    i.xPortStartScheduler  port.o
    0x0000254c   0x0000254c   0x0000001c   Code   RO         2467    i.xQueueCreateCountingSemaphore  queue.o
    0x00002568   0x00002568   0x00000040   Code   RO         2469    i.xQueueGenericCreate  queue.o
    0x000025a8   0x000025a8   0x00000078   Code   RO         2470    i.xQueueGenericReset  queue.o
    0x00002620   0x00002620   0x000000fc   Code   RO         2471    i.xQueueGenericSend  queue.o
    0x0000271c   0x0000271c   0x0000006e   Code   RO         2473    i.xQueueGiveFromISR  queue.o
    0x0000278a   0x0000278a   0x0000012a   Code   RO         2480    i.xQueueSemaphoreTake  queue.o
    0x000028b4   0x000028b4   0x00000060   Code   RO         2674    i.xTaskCheckForTimeOut  tasks.o
    0x00002914   0x00002914   0x0000005c   Code   RO         2675    i.xTaskCreate       tasks.o
    0x00002970   0x00002970   0x00000120   Code   RO         2681    i.xTaskIncrementTick  tasks.o
    0x00002a90   0x00002a90   0x00000060   Code   RO         2684    i.xTaskPriorityDisinherit  tasks.o
    0x00002af0   0x00002af0   0x000000a4   Code   RO         2685    i.xTaskPriorityInherit  tasks.o
    0x00002b94   0x00002b94   0x00000080   Code   RO         2686    i.xTaskRemoveFromEventList  tasks.o
    0x00002c14   0x00002c14   0x000000e0   Code   RO         2687    i.xTaskResumeAll    tasks.o
    0x00002cf4   0x00002cf4   0x00000028   Data   RO         3146    .constdata          c_p.l(_printf_hex_int.o)
    0x00002d1c   0x00002d1c   0x00000020   Data   RO         3425    Region$$Table       anon$$obj.o


    Execution Region RW_IRAM1 (Exec base: 0x20000000, Load base: 0x00002d3c, Size: 0x00003a68, Max: 0x00006000, ABSOLUTE)

    Exec Addr    Load Addr    Size         Type   Attr      Idx    E Section Name        Object

    0x20000000   0x00002d3c   0x00000008   Data   RW          184    .data               adc.o
    0x20000008   0x00002d44   0x00000004   Data   RW          522    .data               taskuart.o
    0x2000000c   0x00002d48   0x00000008   Data   RW          618    .data               main.o
    0x20000014   0x00002d50   0x00000004   Data   RW          670    .data               user_init.o
    0x20000018   0x00002d54   0x00000044   Data   RW         2690    .data               tasks.o
    0x2000005c   0x00002d98   0x00000018   Data   RW         3009    .data               heap_4.o
    0x20000074   0x00002db0   0x00000004   Data   RW         3061    .data               port.o
    0x20000078        -       0x00000064   Zero   RW          617    .bss                main.o
    0x200000dc        -       0x0000012c   Zero   RW         2689    .bss                tasks.o
    0x20000208        -       0x00002800   Zero   RW         3008    .bss                heap_4.o
    0x20002a08        -       0x00000060   Zero   RW         3302    .bss                c_p.l(libspace.o)
    0x20002a68        -       0x00000800   Zero   RW            2    HEAP                startup_fm33lc0xx.o
    0x20003268        -       0x00000800   Zero   RW            1    STACK               startup_fm33lc0xx.o


==============================================================================

Image component sizes


      Code (inc. data)   RO Data    RW Data    ZI Data      Debug   Object Name

       308         26          0          8          0      59112   adc.o
        80         16          0          0          0       5374   bstim32_timing.o
       532          4          0          0          0      39517   fm33lc0xx_fl_dma.o
       316          4          0          0          0      46999   fm33lc0xx_fl_gpio.o
        28          0          0          0          0         76   fm33lc0xx_fl_lpuart.o
       812        104          0          0          0      32215   fm33lc0xx_fl_rcc.o
       452         30          0          0          0      41279   fm33lc0xx_fl_uart.o
       154          4          0          0          0      16214   gpio.o
       520         64          0         24      10240       4143   heap_4.o
       150          0          0          0          0       4818   list.o
        48          4          0          0          0      11019   lptim32_timing.o
       222         64          0          8        100       3026   main.o
        60          8          0          0          0      69001   mf_config.o
       322         52          0          4          0       5960   port.o
      1266          0          0          0          0      13717   queue.o
        56         26        192          0       4096        808   startup_fm33lc0xx.o
       300         22          0          0          0        693   system_fm33lc0xx.o
        92         26          0          0          0        570   taskadc.o
      2384        336          0         68        300      23548   tasks.o
       108         40          0          4          0       3405   taskuart.o
       842         56          0          0          0      31277   uart.o
       450         34          0          4          0      32167   user_init.o

    ----------------------------------------------------------------------
      9512        920        224        120      14736     444938   Object Totals
         0          0         32          0          0          0   (incl. Generated)
        10          0          0          0          0          0   (incl. Padding)

    ----------------------------------------------------------------------

      Code (inc. data)   RO Data    RW Data    ZI Data      Debug   Library Member Name

         8          0          0          0          0         68   __main.o
       108          0          0          0          0         76   __printf.o
         0          0          0          0          0          0   __rtentry.o
        12          0          0          0          0          0   __rtentry2.o
         6          0          0          0          0          0   __rtentry4.o
        60          8          0          0          0          0   __scatter.o
        26          0          0          0          0          0   __scatter_copy.o
        28          0          0          0          0          0   __scatter_zi.o
        48          6          0          0          0         88   _printf_char_common.o
        40          6          0          0          0         72   _printf_char_file.o
        10          0          0          0          0          0   _printf_d.o
       108         18          0          0          0         76   _printf_dec.o
        88          4         40          0          0         72   _printf_hex_int.o
       176          0          0          0          0         84   _printf_intcommon.o
         2          0          0          0          0          0   _printf_percent.o
         4          0          0          0          0          0   _printf_percent_end.o
        10          0          0          0          0          0   _printf_x.o
        18          0          0          0          0         68   aeabi_memset.o
       346          0          0          0          0         92   aeabi_sdiv.o
        16          0          0          0          0         68   exit.o
         8          0          0          0          0         60   ferror.o
         6          0          0          0          0        136   heapauxi.o
         2          0          0          0          0          0   libinit.o
         2          0          0          0          0          0   libinit2.o
         2          0          0          0          0          0   libshutdown.o
         2          0          0          0          0          0   libshutdown2.o
         8          4          0          0         96         68   libspace.o
       258          0          0          0          0         88   lludiv.o
        28          6          0          0          0         84   noretval__2printf.o
        64          0          0          0          0        108   rt_memclr.o
       186          0          0          0          0        144   rt_memcpy.o
         2          0          0          0          0          0   rtexit.o
        10          0          0          0          0          0   rtexit2.o
        40          0          0          0          0         60   rtudiv10.o
        62          0          0          0          0         80   sys_stackheap_outer.o
         2          0          0          0          0         68   use_no_semi.o
         2          0          0          0          0         68   use_no_semi_2.o

    ----------------------------------------------------------------------
      1804         52         40          0         96       1728   Library Totals
         6          0          0          0          0          0   (incl. Padding)

    ----------------------------------------------------------------------

      Code (inc. data)   RO Data    RW Data    ZI Data      Debug   Library Name

      1798         52         40          0         96       1728   c_p.l

    ----------------------------------------------------------------------
      1804         52         40          0         96       1728   Library Totals

    ----------------------------------------------------------------------

==============================================================================


      Code (inc. data)   RO Data    RW Data    ZI Data      Debug   

     11316        972        264        120      14832     440734   Grand Totals
     11316        972        264        120      14832     440734   ELF Image Totals
     11316        972        264        120          0          0   ROM Totals

==============================================================================

    Total RO  Size (Code + RO Data)                11580 (  11.31kB)
    Total RW  Size (RW Data + ZI Data)             14952 (  14.60kB)
    Total ROM Size (Code + RO Data + RW Data)      11700 (  11.43kB)

==============================================================================

