:020000040000FA
:10000000683A00202D020000350200004D14000067
:1000100000000000000000000000000000000000E0
:100020000000000000000000000000003902000095
:1000300000000000000000003B0200003D02000044
:100040003F0200003F0200003F0200003F020000AC
:100050003F0200007D0800003F0200003F02000058
:100060003F0200003F0200003F0200003F0200008C
:100070003F0200003F0200003F0200003F0200007C
:100080003F0200003F0200003F0200003F0200006C
:1000900065140000610900003F0200003F020000FB
:1000A000110900003F0200003F0200003F02000073
:1000B0003F0200003F0200003F0200003F0200003C
:1000C00000F002F800F04BF80CA030C808382418F3
:1000D0002D18A246671EAB4654465D46AC4201D180
:1000E00000F03DF87E460F3E0FCCB6460126334267
:1000F00000D0FB1AA246AB4633431847202C000021
:10010000402C0000103A02D378C878C1FAD85207C0
:1001100001D330C830C101D504680C6070470000BD
:100120000023002400250026103A01D378C1FBD813
:10013000520700D330C100D50B60704710B5642959
:1001400002D100F055F910BD782902D100F086F9EE
:1001500010BD002010BD1FB51FBD10B510BD00F0B3
:1001600061FB1146FFF7F7FF01F098FC00F079FB07
:1001700003B4FFF7F2FF03BC01F076FC084B1968EB
:100180000868203080F30988022080F31488BFF3C8
:100190006F8F3FBCAE4608BC04BC62B61847000077
:1001A00018000020EFF3108072B6704780F31088BB
:1001B0007047EFF309800E4B1A6820381060F0C0CA
:1001C00044464D4656465F46F0C008B572B602F04A
:1001D00047F962B60CBC116808681030F0C8A04638
:1001E000A946B246BB4680F309882038F0C81847B4
:1001F0001800002070B505460C46164602E00FCCEC
:100200000FC5103E102EFAD2082E02D303CC03C520
:10021000083E042E07D301CC01C5361F03E0217828
:100220002970641C6D1C761EF9D270BD074880478A
:1002300007480047FEE7FEE7FEE7FEE7FEE7FEE7CA
:1002400004480549054A064B70470000F5150000B3
:10025000C1000000682A0020683A002068320020AF
:10026000683200207047FEB5054610460C4618431C
:1002700073D0AE468C460020AD1A01469C4167D330
:100280006646002701243D46B61A9D4102D3134617
:100290003A462124654676462F04360C3E432D0C03
:1002A000B61A9D4104D3150C1B042B4312041034C1
:1002B000654676462F06360A3E432D0AB61A9D41FC
:1002C00004D3150E1B022B431202083465467646F2
:1002D0002F0736093E432D09B61A9D4104D3150F49
:1002E0001B012B431201241D65467646AF07B60855
:1002F0003E43AD08B61A9D4104D3950F9B002B4396
:100300009200A41C65467646EF0776083E436D08CA
:10031000B61A9D411AD392185B41641C16E000186E
:10032000764665464941B71A9D410191009009D32F
:100330006046B11A98418E4684460098019900257E
:10034000401C6941DD0752082A435B08641EE6D55C
:100350007246634603B0F0BDFFE700200146C04689
:10036000C0462A462346F5E70FB4054910B503AA4F
:10037000029800F02BFA10BC08BC04B0184700002B
:1003800014000020F8B50E460446002020622046E6
:10039000E1688847002829D0252802D06268A16832
:1003A00020E0E16820460027884705001ED0284647
:1003B0004138192802D80127FF022035324620464D
:1003C00027602946FFF7BAFE002808D0012804D08C
:1003D000F61DF608F6000836D9E7361DD7E762683D
:1003E0002846A1689047206A401CCFE7206AF8BDE4
:1003F000F7B5002575291068009914A611D0C046DC
:10040000C046002802DA404211A608E000990968B7
:100410008A0701D50FA602E0490704D50EA60125DB
:1004200001E0C046C046009F0024243704E000F0ED
:10043000E1F930313955641C0028F8D12B46324699
:100440002146009800F051F9FEBD000000000000B8
:100450002D0000002B0000002000000070B50446B5
:100460000D4621461068C046C0462188090502D5C0
:100470000F4A7A4402E00E4A7A440E3223460021A3
:10048000243305E006070009360F965D5E54491CCB
:100490000028F7D120780023000705D5702D03D060
:1004A000002901D002231132204600F01EF970BD50
:1004B0007E280000F8B5042A2CD3830712D00B78CD
:1004C000491C0370401C521E83070BD00B78491C3B
:1004D0000370401C521E830704D00B78491C037024
:1004E000401C521E8B079B0F05D0C91ADF0020232A
:1004F000DE1B08C90AE0FFF77DFEF8BD1D4608C9EE
:10050000FD401C46B4402C4310C0121F042AF5D2F3
:10051000F308C91A521EF0D40B78491C0370401C12
:10052000521EEAD40B78491C0370401C012AE4D403
:1005300009780170F8BDD2B210B513029A181304ED
:100540009A1800F00EF810BD01E004C0091F04293C
:10055000FBD28B0701D50280801CC90700D0027036
:10056000704700290BD0C30702D00270401C491EFF
:10057000022904D3830702D50280801C891EE3E789
:100580000022EEE70022DFE7002203098B422CD392
:10059000030A8B4211D300239C464EE003460B43D3
:1005A0003CD4002243088B4231D303098B421CD335
:1005B000030A8B4201D394463FE0C3098B4201D327
:1005C000CB01C01A524183098B4201D38B01C01A5F
:1005D000524143098B4201D34B01C01A52410309D6
:1005E0008B4201D30B01C01A5241C3088B4201D385
:1005F000CB00C01A524183088B4201D38B00C01A32
:10060000524143088B4201D34B00C01A5241411A58
:1006100000D201465241104670475DE0CA0F00D03B
:100620004942031000D34042534000229C46030934
:100630008B422DD3030A8B4212D3FC22890112BABA
:10064000030A8B420CD3890192118B4208D3890192
:1006500092118B4204D389013AD0921100E08909AA
:10066000C3098B4201D3CB01C01A524183098B428B
:1006700001D38B01C01A524143098B4201D34B0174
:10068000C01A524103098B4201D30B01C01A5241D7
:10069000C3088B4201D3CB00C01A524183088B425E
:1006A00001D38B00C01A5241D9D243088B4201D3E7
:1006B0004B00C01A5241411A00D2014663465241D2
:1006C0005B10104601D34042002B00D549427047D1
:1006D00063465B1000D3404201B50020C046C046CF
:1006E00002BD7047704770477047FFB504460D461E
:1006F00081B0243000902168880604D51022E0697A
:100700009143216000E00120A84201DD471B00E089
:1007100000270498A1697A191018081AA061207896
:10072000C00602D42046C046C046002608E0039812
:100730006268A168805D9047206A401C761C206238
:1007400004988642F3DB2078C0060AD52046C046CE
:10075000C04606E06268A16830209047206A401CCD
:10076000206238467F1E0028F4DC07E000986268AB
:10077000A168405D9047206A401C206228466D1E9B
:100780000028F3DC2046C046C0462078000602D58B
:10079000022005B0F0BD0120FBE7000001694A1C02
:1007A00002610878704700B58FB002910021059171
:1007B0000549019379440391114604906846FFF777
:1007C000E1FD0FB000BD0000E5FFFFFF084B70B575
:1007D0000D467B44FFF7E7FF0446284600F01EF86D
:1007E000002802D00020C04370BD204670BD00002C
:1007F0009712000001468008081A02091018020A20
:100800001018020C1018C008820012185200891A21
:1008100001E0401C0A390A29FBD27047C0688021D8
:1008200008407047754600F025F8AE460500694659
:100830005346C008C000854618B020B5FFF700FD3C
:1008400060BC00274908B6460026C0C5C0C5C0C563
:10085000C0C5C0C5C0C5C0C5C0C5403D49008D4666
:10086000704710B50446C046C0462046FFF780FCDE
:1008700010BD000000487047082A002010B500BFD6
:100880000A484068C007C00F01214840484000287E
:100890000AD0064800F000F9012805D1034800F00D
:1008A000DDF801200249087010BD000000AC0140D5
:1008B0000000002000BF1DE000F080FD00231A466C
:1008C00019460D48006801F0ABFE01280ED1002446
:1008D00007E06000094A115A09A0FFF745FD601CB6
:1008E000C4B2032CF5DB09A0FFF73EFD7D20C0005C
:1008F00001F006FDE0E700000C00002002000020EF
:10090000434F4E564552543A2025640D0A000000CC
:1009100000BF0C48C068C007C00F012148404840D4
:1009200000280DD000BF07480069084048404840F3
:10093000002805D000BF01200249086100BF00BFA8
:100940007047000000B4014010B503490348006837
:1009500001F0E4FE10BD000008000020100000209F
:1009600010B504200B49896C01228240120211400B
:10097000012282401202914201D1012100E00021B6
:10098000002905D00421034800F092F8FFF7DCFFAE
:1009900010BD00000004004000B58BB0142106A873
:1009A000FFF7F0FD18216846FFF7ECFD0320400338
:1009B0000690022007900020089001200990002056
:1009C0000A9006A90A4800F09DF900200090E12055
:1009D00040020190402002900020039010200490DB
:1009E000032005906946034800F0C8FB0BB000BD2A
:1009F000000C0040001C014010B5044603E07D20BF
:100A0000C00000F005F82046641E0028F7D110BD94
:100A100070B5064600F062FB314600F0FFFF044669
:100A20000C4A0023FFF71FFC064601200006864201
:100A300000D900E030460646701E07494861002094
:100A4000886100BF04480069C003C00F0028F9D0C6
:100A500070BD000040420F0000E000E00121016095
:100A600070478168490849008160704742690B03FB
:100A70001B0B9A43426170478168012211438160D8
:100A800070478168022211438160704742690B03FD
:100A90001B0B1A434261704701460868C007C00F2C
:100AA00001225040504070470146886980B270472B
:100AB000FF2201328A40826470470000FCB5034681
:100AC00010205A4CE46A0443584DEC6200BF009376
:100AD0004C6910460194009B1C4606280BD8C600A2
:100AE000251DAD5903263603B543019E3543C60087
:100AF000271DBD5106E0E56B03263603B543019E75
:100B00003543E56300BF00938C6810460194009B59
:100B10001C4606280BD8C600251DAD590126F60235
:100B2000B543019E3543C600271DBD5106E0E56B68
:100B300001267602B543019E3543E56300BF00936D
:100B40004C6810460194009B1C4606280AD8C60033
:100B5000251DAD594026B543019E3543C600271DCE
:100B6000BD5106E0E56B0126B602B543019E354353
:100B7000E56300BF00930C6910460194009B1C467E
:100B8000062809D8C600251DAD593026B543019E5B
:100B90003543C600271DBD5100BF8869012817D104
:100BA00010460193019B1C46062808D8C600251D47
:100BB000AD5908263543C600271DBD5103E0E56B3E
:100BC00008263543E56300BF072A16D10020FCBD87
:100BD00010460193019B1C46062808D8C600251D17
:100BE000AD590826B543C600271DBD5103E0E56B8E
:100BF0000826B543E56300BF00BF072A14D0009361
:100C00000C6810460194009B1C4606280AD8C600B2
:100C1000251DAD5907263602B543019E3543C60052
:100C2000271DBD5100BF00BF0120D0E700020040DA
:100C3000F7B581B003460093029910464C68009BBB
:100C40001946062809D8C6000D1DAD59ADB22604B7
:100C50003543C6000F1DBD5104E0CD6BADB2260477
:100C60003543CD6300BF0093029910460C68009B8A
:100C70001946062808D8C6000D1D75196D68C600EE
:100C80000F1DF619746001E04D6C4C6400BF00BF8D
:100C900001209040986400BF00BFFF2001309040C9
:100CA000986400BF1C4610462146062808D8C60096
:100CB0000D1DAD5901263543C6000F1DBD5103E082
:100CC000CD6B01263543CD6300BF012004B0F0BDDC
:100CD000826A8BB29A438262704702688BB29A43EF
:100CE0000260704782688BB29A43826070474268A4
:100CF0008BB29A4342607047026A8BB29A43026297
:100D000070470000F8B505460E46002700248020F5
:100D10003749896A0143364A916200BF62E0012186
:100D2000B940306808400446002C5AD07068032847
:100D300012D121462846FFF7D0FF21462846FFF76B
:100D4000D6FF21462846FFF7CDFF00BFA86AA1B213
:100D50000843A86200BF2EE021462846FFF7B8FFEF
:100D60007068002806D100BF2868A1B20843286037
:100D700000BF03E021462846FFF7AFFFB068002818
:100D800004D121462846FFF7ADFF06E000BFA86862
:100D9000A1B20843A86000BF00BFF068002806D0D9
:100DA00000BF6868A1B20843686000BF03E0214645
:100DB0002846FFF79CFF706802280DD13069012892
:100DC00006D100BF286AA1B20843286200BF03E031
:100DD00021462846FFF790FF21462846726800F01A
:100DE0000EF87F1C3068F840002898D10120F8BD2B
:100DF0000002004082698BB21A438261704730B5AD
:100E0000C3680C464C4365006419A3430C464C432D
:100E100054432343C36030BD0249C96A0143014AB8
:100E2000D1627047400200400249096B0143014A08
:100E3000116370470002004010B5002400BF1B483A
:100E4000C06807210902084005221202811A904257
:100E500018D006DC00280DD001218902401A1DD1CE
:100E60000CE0C81FF938002810D0FF3801380028DE
:100E700014D10FE000F032F9044613E000F02EF92F
:100E800044080FE000F02AF984080BE000F026F98E
:100E9000C40807E000F022F9040903E000F01EF99D
:100EA000044600BF00BF204610BD00000002004005
:100EB00010B5002400BF1B48C06807210904084082
:100EC00005221204811A904218D006DC00280DD0A9
:100ED00001218904401A1DD10CE001200004081AE8
:100EE00010D001210904401A14D10FE0FFF7A4FF2C
:100EF000044613E0FFF7A0FF44080FE0FFF79CFF54
:100F000084080BE0FFF798FFC40807E0FFF794FFA1
:100F1000040903E0FFF790FF044600BF00BF20462E
:100F200010BD00000002004010B5002400BF1B48A7
:100F3000C0680721C90408400522D204811A9042E2
:100F400018D006DC00280DD001214905401A1DD11A
:100F50000CE00120C004081A10D00121C904401A75
:100F600014D10FE0FFF768FF044613E0FFF764FFBA
:100F700044080FE0FFF760FF84080BE0FFF75CFF19
:100F8000C40807E0FFF758FF040903E0FFF754FF28
:100F9000044600BF00BF204610BD00000002004014
:100FA00070B50024002500BF254880690221084053
:100FB000002802D0022806D103E000F06DF80446B4
:100FC00005E0204C03E000F067F8044600BF00BFD6
:100FD00000BF1B488069702108400107090F0029E4
:100FE0001FD10011030000F031FD080506080A0CAE
:100FF00012141A1C16E0640814E0A40812E0E408B5
:1010000010E00C212046FFF7BFFA04460AE024094D
:1010100008E018212046FFF7B7FA044602E0640909
:1010200000E000BF00BF00BF054880697F210904C0
:101030000840000C451C204668430446204670BD0D
:101040000002004000127A00002000BF0D49496AEA
:10105000032212041140002908D001221204891A27
:1010600006D0891A06D0891A08D105E0064807E09B
:10107000064805E0064803E0064801E0024800BFD4
:1010800000BF70474002004000093D0040420F0091
:1010900020A1070090D00300002000BF0B49096980
:1010A0000F2212041140002906D001221204891ACD
:1010B00004D0891A06D103E0054805E0054803E09D
:1010C000054801E0024800BF00BF70470002004031
:1010D00000127A000024F40000366E0110B50024DE
:1010E00000BF1548C0684007400F030000F0AEFC89
:1010F0000805090B1D0F131A161DFFF7CDFF044637
:1011000017E00E4C15E0FFF74BFF044611E0FFF728
:101110009BFF04460DE00124E4030AE000F010F810
:10112000044606E07D24240203E0FFF7B5FF0446F1
:1011300000BF00BF204610BD0002004000127A0030
:1011400000BF0548C06808210840002801D10348B5
:1011500070470348FCE7000000020040006CDC021E
:10116000008793030449096B072212069143014348
:10117000014A11637047000040020040F8B5044680
:101180000D4600270020009000266048844228D1A8
:1011900028685F49C96A8908890001435C4AD162AD
:1011A00000BF2868002806D0012808D002280AD0ED
:1011B000032810D10BE0FFF77BFE00900BE0FFF758
:1011C0006BFF009007E0FFF789FF009003E0FFF757
:1011D0003BFF009000BF00BF69680098FFF7D4F99B
:1011E000461E4C48844228D128684949C96A0C22C5
:1011F00091430143464AD16200BF2868002806D0C7
:10120000042808D008280AD00C2810D10BE0FFF7DA
:101210004FFE00900BE0FFF73FFF009007E0FFF765
:101220005DFF009003E0FFF70FFF009000BF00BFDD
:1012300069680098FFF7A8F9461E3448844206D131
:101240008015FFF7F1FDA015FFF7E6FD26E0314818
:10125000844206D14015FFF7E7FD6015FFF7DCFD7E
:101260001CE02D4884420BD18014FFF7DDFDFFF711
:101270005BFE009069680098FFF786F9461E0DE056
:10128000264884420AD14014FFF7CEFDFFF74CFEFA
:10129000009069680098FFF777F9461E287DC0071F
:1012A000C00F002806D000BF20680121084320603D
:1012B00000BF00BF022168690840002805D000BFB8
:1012C00020680843206000BF00BF00BFA069000C79
:1012D00000043043A06100BFE8682168FF220132AA
:1012E00091430143216000BFA8682168C022914357
:1012F0000143216000BF28692168302291430143E6
:10130000216000BF01273846F8BD0000001C0140E5
:10131000400200400020014000A0014000A4014024
:1013200000B585B0F02000900120019000200290CF
:101330000390049069461648FFF7E4FC0F200090E4
:10134000012001900020029003900490694610480B
:101350004030FFF7D7FC03200090012001900020CF
:10136000029003900490694609488030FFF7CAFC58
:101370004120C000009001200190002002900390C5
:10138000049069460248C030FFF7BCFC05B000BDC0
:10139000000C004002690A40002A06D000BF8269A2
:1013A0008BB21A43826100BF06E000BF42698BB274
:1013B0001A43426100BF00BF7047000010B5012012
:1013C00000F010F806490880012000F00BF80449ED
:1013D0004880012000F006F80149888010BD000017
:1013E0000200002070B5044600260020FFF7BAFE78
:1013F00021461548FFF74AFB1348FFF72FFB124819
:10140000FFF73AFB1048FFF73CFB07E0052E00DB37
:1014100009E0701CC6B2012000F072FF0A48FFF715
:101420003BFB0028F2D000BF0748FFF717FB064838
:10143000FFF73AFB85B20448FFF713FB2146024849
:10144000FFF714FB284670BD00AC014010B502A0A8
:10145000FEF78AFF10BD0000686172646661756CFA
:10146000740A000000BF0A4800690421084080088F
:1014700000280CD000BF06484069084080080028BA
:1014800005D000BF04200249486100BF00BF70477B
:101490000034014010B586B00524142101A8FFF7DF
:1014A00071F801211248FFF7A5FC0120019002907C
:1014B00000200390049001A90D48FFF723FC10E0E1
:1014C00001210B48FFF796FC6420FFF795FA0120F5
:1014D000074949690143064A516100BF6420FFF78B
:1014E0008BFA2046611ECCB20028E9D106B010BDAF
:1014F000800C004000BF07E07D20C00000F000FF2E
:1015000002210248FFF746FFF6E70000800C00408A
:1015100004200B49896A0143094A916200BF0020F7
:101520000849096B490A49020143064A116300BF91
:1015300004200349896A8143014A916200BF7047D0
:10154000000200400010014070477047002805DB92
:10155000C206D20E01219140014A1160704700007D
:1015600080E100E0002805DBC206D20E0121914097
:10157000014A11607047000000E100E010B500284A
:1015800019DB1A4A03231B02D21883089B00D25886
:101590008307DC0EFF23A3409A438B071B0E8407AF
:1015A000E40EA3401A43114B032424021B198408A0
:1015B000A4001A5118E00E4A03071B0F083B9B08B2
:1015C0009B00D2588307DC0EFF23A3409A438B076E
:1015D0001B0E8407E40EA3401A43054B0407240F97
:1015E000083CA408A4001A5110BD000000E100E06E
:1015F0001CED00E00021454A916105214906D160BA
:101600001146896A80221143404A91624049C96863
:101610000F22920411433E4AD16000213B4A51629D
:101620001146496A052212021143384A51627D204F
:10163000000100E0401E0028FCD1AA21334A91633A
:101640001146C96892041143304AD1603149096892
:10165000012211432F4A116011464968FE221140B0
:101660002C4A51600321D20451602B490968090CAE
:10167000294A1288D24392B2914202D1264909687E
:1016800000E030214906490E204A5161224949684B
:10169000090C214A9288D24392B2914202D11E494A
:1016A000496800E041214906490E184A40329162DA
:1016B00019494039096A090C174A403A128CD24339
:1016C00092B2914203D114494039096A00E0802165
:1016D000C9B20E4A11620E494968FF228132114394
:1016E0000B4A51600949C96A10221143074AD16265
:1016F0000A49C96B12151143084AD1630349C96AE3
:1017000010229143014AD16270470000000200405C
:10171000C00C004000A8014040FBFF1F0004004037
:101720000648006904210843044908610846006925
:1017300001210843014908617047000000E000E012
:10174000002001494862704700B401400148406AE6
:101750007047000000B40140F7B58AB004460D465A
:101760001C2103A8FEF70EFF0020019002902448E0
:10177000844201D00DB0F0BD214800F0B1F8052041
:1017800000020390002004900120C0020590002078
:10179000079001204003089000200990042203A92B
:1017A0001848FFF78BF901950C98401E029004220F
:1017B00001A91448FFF73CFA1520FFF7C7FE0221E4
:1017C0001520FFF7DBFE1520FFF7CCFE04210D48A6
:1017D000FFF76EF90B4A04201146062808D8C60008
:1017E0000B1D9B5904263343C6000F1DBB5103E05C
:1017F000CB6B04263343CB6300BF00BFBAE70000C6
:1018000000A4014000040040F3B503461D48834294
:1018100000D0FCBD1C4C0420019A2146062808D8A3
:10182000C6000D1D75196D68C6000F1DF619726092
:1018300001E04D6C4A6400BF00BF134800680121FD
:1018400008431149086000BF0A46042011460628D3
:1018500008D8C5000C1D645901252C43C6000D1D78
:10186000AC5103E0CC6B01252C43CC6300BF00BF1F
:1018700004480068022108430249086000BF00BF15
:10188000C7E7000000A401400004004018E00D4933
:101890000D48FFF7B9FF0021C9430C48006800F06C
:1018A00074FF01280CD1002405E00648015D08A062
:1018B000FEF75AFD641C0A2CF7DB08A0FEF754FD66
:1018C000E5E700007800002000A40140100000209F
:1018D000554152543A2025780D0A00000A000000B4
:1018E00010B58CB00446142107A8FEF74BFE182152
:1018F00001A8FEF747FE4348201800280AD001211E
:101900008902401A20D04901401A38D04911401AA2
:1019100065D14CE00320400307900220089000208E
:1019200009900A900B9007A93748FFF7EBF90020C0
:1019300001900A20FFF70AFE02210A20FFF71EFE8F
:101940000A20FFF70FFE4BE0032040030790022020
:101950000890002009900A900B9007A92A4840306F
:10196000FFF7D0F9002001900B20FFF7EFFD0221D7
:101970000B20FFF703FE0B20FFF7F4FD30E00C20F7
:10198000079002200890002009900A900B9007A968
:101990001D484030FFF7B6F90C20FFF7D7FD0221B4
:1019A0000C20FFF7EBFD0C20FFF7DCFD18E0032017
:1019B000079002200890002009900A900B9007A938
:1019C0001148C030FFF79EF90D20FFF7BFFD02213F
:1019D0000D20FFF7D3FD0D20FFF7C4FD00E000BF91
:1019E00000BFE120400202904020039000200490BC
:1019F000102005900020069001A92046FFF7BEFBAD
:101A00000CB010BD00E4FEBF000C004010B5FFF7A5
:101A100087FEFFF73FFDFEF7BFFF10BDF8B582B2AE
:101A20008BB2040C0D0C10465843002126465E4331
:101A3000370C36048019794116466E43370C36044C
:101A40008019794126466E438919F8BD30B4744631
:101A5000641E2578641CAB4204D3635D5B00E3180D
:101A600030BC18471D46F8E700BF704710B50A465E
:101A7000C1B2094B5B691B0A1B020B43064C636135
:101A800000BF00BF00BF044989680223194049080C
:101A90000029F7D010BD0000001C01401CB5FFF765
:101AA00037FDFFF752FDFFF7B1FFFFF74DFD0A22AB
:101AB00019491A48FFF750FEFFF732FC00210A20AF
:101AC00000F044FD1649086000210A2000F03EFDA8
:101AD000144908600020012103460A020091019088
:101AE00011A1124800F016FF0020012103460A024E
:101AF000009101900EA10F4800F00CFF0020012181
:101B000003460A02009101900BA10D4800F002FF6C
:101B100000F070FC00BFFEE77800002000A4014048
:101B20000C000020100000204C656400F51400003B
:101B300041646300B5080000556172740000000044
:101B40008D180000F8B505460E4617480768174877
:101B50000068001D00F038FB681C002808D1002E2A
:101B600006D012480168091D114800F06DFB1AE00B
:101B70007C190E4800684460BC4207D20B480168DB
:101B8000091D0C48006800F044FB0CE007480168A0
:101B9000091D0948006800F03CFB084800688442C1
:101BA00001D206480460F8BD2C0000201800002077
:101BB000F4010020200000201C000020480000202C
:101BC00010B5044600F04CFB22480068401C214937
:101BD000086021480068002808D11F4804600846B2
:101BE000006801280ED100F06DF90BE01B48006879
:101BF000002807D118480068C06AE16A884201D805
:101C00001548046016480068401C154908600846DD
:101C1000006860641349E06A0968884202D9114982
:101C2000E06A08601422E16A51430F4A8818211DB6
:101C300000F00AFB00F022FB08480068002807D0EB
:101C400005480068C06AE16A884201D200F04CFB96
:101C500010BD0000280000201800002034000020E3
:101C60004400002030000020DC00002010B516E009
:101C700000F0F6FA0C48C068C468201D00F0A4FA11
:101C80000A480068401E0949086009480068401E6B
:101C90000749086000F0F2FA204600F04BF80448CB
:101CA00000680028E4D110BDE001002028000020D9
:101CB00024000020F8B504460F4615460020009089
:101CC000A66B206C002809D1206800282ED1A068BE
:101CD00000F0DEFE00900020A06027E0002D0FD174
:101CE0003946226C6068FEF7E5FB216C606840189D
:101CF0006060A1686068884218D32068606015E061
:101D00003946226CE068FEF7D5FB216CE068411A89
:101D1000E1602168E068884203D2216CA068411A22
:101D2000E160022D02D1002E00D0761E701CA0634F
:101D30000098F8BD10B50446206B00F0ADFA2046BF
:101D400000F0AAFA10BD01464A6A002A04D00A6BC4
:101D500012680A23981A00E00020704730B5052366
:101D6000DB0217484407640F002C05D0C01DC008D3
:101D7000C000134C041B1B1B0246124C22600024A3
:101D8000104D6C60D0180838C008C0000E4C2060A0
:101D900000240D4D2D686C600B4D2D682C60114694
:101DA000441A4C60084C24680C60084D4C682C6048
:101DB000074D4C682C600124E407064D2C6030BDB3
:101DC000080200205C000020640000206C0000205D
:101DD000680000207000002000BFFFF747FF0448A4
:101DE0000068012801D900F07FFA00F001FAF4E759
:101DF000DC000020FFB581B006460D4617460A9C60
:101E0000002D01D1246000E02760E66325640121F4
:101E1000204600F0C9FB4C210498085505B0F0BDE0
:101E2000FFB581B00E460A9F0C9C039A9100A52233
:101E3000206BFEF780FB216B0398401E8000081882
:101E400000900098C008C0000090002E11D000251E
:101E500008E0715D204634304155705D002800D1A6
:101E600002E06D1C102DF4D300BF0021432001556A
:101E700002E00021342001550A2F00D30927E76230
:101E8000E76400202065201D00F0C0F920461830CE
:101E900000F0BCF924610A20C01BA061646200202C
:101EA0006065A06500215C200155049A01990098A5
:101EB00000F07AF920600B98002801D00B9804609C
:101EC00005B0F0BD10B5002406E0142161430E4AB0
:101ED000881800F08EF9641C0A2CF6D30B4800F029
:101EE00088F90B4800F085F90A4800F082F90A48A1
:101EF00000F07FF9094800F07CF9044808490860BF
:101F000003480849086010BDDC000020A40100203F
:101F1000B8010020CC010020E0010020F4010020E5
:101F20001C0000202000002010B50146164800E0EB
:101F3000006803688B42FBD3024643689B188B42C0
:101F400004D143684C681B19436001460A464B683C
:101F50009B180468A34211D10C4C03682468A34267
:101F600008D04B68046864681B194B6003681B68E1
:101F70000B6005E0054B1B680B6001E003680B601C
:101F8000884200D0016010BD5C0000206400002089
:101F900070B5054600F064F9A86B002801D1012452
:101FA00000E0002400F06AF9204670BD70B50546D7
:101FB00000F056F9A86BE96B884201D1012400E0DA
:101FC000002400F05BF9204670BD00000B49096851
:101FD0000968002901D1012100E00021002904D075
:101FE0000021C943064A116006E004490968C9682E
:101FF000C868034A41681160704700001C00002057
:1020000048000020002004490861886103484861B5
:10201000072008617047000000E000E03F1F00005B
:1020200072B600BFFEE770B5044600F019F945200E
:10203000055713E0606A002801D1012000E000206C
:10204000002808D12046243000F0A4FD002803D049
:1020500000F076F900E003E0681E45B2002DE9DCEF
:1020600000BF0021C9434520015500F007F900F0E9
:10207000F7F84420055713E02069002801D101201A
:1020800000E0002000280AD12046103000F082FD38
:10209000002801D000F054F9681E45B200E001E0CC
:1020A000002DE9DC00BF0021C9434420015500F0A8
:1020B000E5F870BDF8B505460020009000F0C8F9BD
:1020C0002C480068002801D1FFF748FE2A48006824
:1020D0002840002849D1002D09D008356807400F55
:1020E000002804D06807400F0821081A4519002D60
:1020F0003BD022480068854237D8214E30460468DC
:1021000001E0264624686068A84202D220680028C0
:10211000F7D118480068844227D030680830009012
:10212000206830606068401B102807D96719606814
:10213000401B786065603846FFF7F6FE0F4960681F
:102140000968081A0D490860084600680D490968C1
:10215000884203D2094800680A4908600649606855
:102160000968084360600020206000F053FD00987B
:10217000F8BD00006400002070000020680000200E
:102180005C0000206C00002006480068002806D093
:102190000449096808465030096D491C016001482E
:1021A0000068704718000020001F01231B06036011
:1021B000001F0160001F034B0360143802602038C9
:1021C000704700002120000001460A694B688868BA
:1021D00098608B68486858605068884201D1886868
:1021E0005060002008611068401E10601068704741
:1021F00070470146083141600021C94381600146B2
:102200000831C16001610021016070470021016156
:10221000704710B502460B685C1C002C01D1106998
:1022200007E01046083000E04068446824689C429B
:10223000FAD944684C604C68A160886041600A61CA
:102240001468641C146010BD42684A6093688B6017
:10225000936859609160086103685B1C0360704774
:1022600072B605480068401C03490860BFF34F8FF1
:10227000BFF36F8F704700007400002005480068AE
:10228000401E0449086008460068002800D162B674
:10229000704700007400002070B506463546002ED9
:1022A0001CD0083D2C460E4960680968084000288B
:1022B00014D02068002811D1094960680968884352
:1022C000606000F0C5F80749606809684018054972
:1022D00008602046FFF728FE00F09CFC70BD00005F
:1022E00070000020680000200120000703494860BA
:1022F000BFF34F8FBFF36F8F7047000000ED00E01A
:1023000070B504460025002C08D000F0A1F800218B
:102310002046FFF717FC00F07DFC0546002D01D19B
:10232000FFF7E2FF70BD000003490968016003493F
:102330000968416070470000400000202C00002028
:1023400001200149086070473C00002070B5054637
:102350000C460548016818312846FFF75AFF01214D
:102360002046FFF7EFFB70BD18000020FEB50646C3
:102370000F46344601200090002E36D0E06CB84263
:1023800001D23D4600E0E56CE06AA8422DD0206D08
:1023900001282AD1E06A0190E562A069C00FC00758
:1023A000002802D10A20401BA06161691422019813
:1023B00050430E4A8018814201D1012000E00020E4
:1023C000002812D0201DFFF7FFFE0949E06A0968C6
:1023D000884202D90649E06A08601422E16A514342
:1023E000024A8818211DFFF72FFFFEBDDC000020E8
:1023F000300000201CB50F4800210B46FF2201329F
:10240000009101900CA10E4800F084FA0446012CC2
:102410000ED172B60020C0430A49086001200A4963
:102420000860002009490860FFF78AF900F072F897
:102430001CBD00004C00002049444C450000000039
:10244000D91D000048000020340000202C0000208E
:1024500002480068401C0149086070475000002095
:1024600010B525480068002803D0012023490860E2
:1024700041E0002021490860FFF768F92049086021
:10248000084600681F49096888420BD91E49096837
:1024900008465430496D1A4A12681A4B1B68D21A02
:1024A00089180160164800681649086017480168D5
:1024B00000E0491E14204843154A1058002801D155
:1024C000012000E000200028F3D114224A43104BE1
:1024D000D01842685268426002460832436893420C
:1024E00002D14268526842604268D268064B1A6064
:1024F0000648016000BF10BD500000203C000020D5
:102500005800002054000020180000203000002057
:10251000DC00002010B50B48006AFF2109040843C5
:10252000084908620846006AFF2109060843054970
:102530000862FFF767FD002003490860FDF71EFEF3
:10254000002010BD00ED00E07400002070B50646CC
:102550000D4602220021304600F006F80446002C09
:1025600000D0A563204670BDF7B582B007460D4682
:10257000002D01D1002601E03E466E43304650302A
:10258000FFF798FD0446002C0BD00194019C2046D7
:1025900050300190009429463846049B019AFFF779
:1025A00029FC204605B0F0BD70B505460E462C4608
:1025B000FFF756FE216CE06B484321684018A0608D
:1025C0000020A06320686060E06B401E216C4843DF
:1025D00021684118E1600021C9434420015545208C
:1025E0000155002E10D12069002801D1012000E002
:1025F0000020002810D12046103000F0CBFA00282F
:102600000AD0FFF771FE07E020461030FFF7F1FD1A
:1026100020462430FFF7EDFDFFF730FE012070BDAE
:10262000FFB583B007461D46002002903C4600BF20
:10263000FFF716FEA06BE16B884201D3022D1FD17C
:102640002A4620460499FFF735FB0646606A0028B3
:1026500001D1012000E00020002808D120462430CC
:1026600000F098FA002806D0FFF73EFE03E0002EA7
:1026700001D0FFF739FEFFF701FE012007B0F0BDE2
:102680000598002803D1FFF7F9FD0020F6E702982E
:10269000002804D16846FFF747FE01200290FFF7AB
:1026A000EDFDFFF7D5FEFFF7DBFD44210857401C89
:1026B000002802D100214420015545210857401C23
:1026C000002802D1002145200155FFF7D7FD05A9BB
:1026D000684600F0EFF8002819D12046FFF766FCA5
:1026E00000280ED0204610300599FFF72FFE204617
:1026F000FFF799FC00F08EFA002899D1FFF7F4FD5E
:1027000096E72046FFF78FFC00F084FA90E720461A
:10271000FFF789FC00F07EFA0020AFE7FEB5054622
:102720000E462C46FDF73EFD0290A06B0190E16B3A
:102730000198814223D94520015700910198401CFE
:10274000A0630098401C002812D1606A002801D1C3
:10275000012000E0002000280FD12046243000F0A6
:1027600019FA002809D0002E07D00120306004E0BB
:102770000098401C41B245200155012700E0002788
:102780000298FDF713FD3846FEBDF3B583B005464C
:1027900000272C460020009000BFFFF761FDA66BCC
:1027A000002E1CD0701EA0632068002802D1FFF705
:1027B000EBFCA0602069002801D1012000E000208E
:1027C000002807D12046103000F0E4F9002801D09D
:1027D000FFF78AFDFFF752FD012005B0F0BD049818
:1027E000002803D1FFF74AFD0020F6E7002F03D1B0
:1027F00001A8FFF799FD0127FFF740FDFFF728FE2D
:10280000FFF72EFD44210857401C002802D100216B
:102810004420015545210857401C002802D10021C1
:1028200045200155FFF72AFD04A901A800F042F850
:10283000002824D12046FFF7ABFB002819D02068E0
:10284000002807D1FFF70CFDA06800F051F90090B7
:10285000FFF714FD204624300499FFF777FD20464A
:10286000FFF7E1FB00F0D6F9002896D1FFF73CFD19
:1028700093E72046FFF7D7FB00F0CCF98DE7204621
:10288000FFF7D1FB00F0C6F92046FFF781FB0028D7
:1028900083D0009800280BD0FFF7E2FC2046FFF71A
:1028A00052FA06463146A068FFF760FDFFF7E6FCE6
:1028B000002092E770B506460C46FFF7D1FC13489E
:1028C00002687068131A2068401C002801D1002596
:1028D00017E00F4930680968884204D07068904258
:1028E00001D801250DE02068984207D92068C01A58
:1028F00020603046FFF718FD002502E00020206030
:102900000125FFF7BBFC284670BD00002C0000200D
:1029100040000020FFB585B01746B800FFF7CAFB9E
:102920000646002E0BD06020FFF7C4FB0446002CA7
:1029300001D0266304E03046FFF7AEFC00E000243F
:10294000002C10D000220F990E986B4613C30392EF
:102950003A46089B06990598FFF762FA2046FFF76A
:102960002FF9012501E00025ED43284609B0F0BD0F
:10297000F8B5002000903B480068002864D13A4830
:102980000068451C38480560002D0FD1374807689E
:1029900037480068354908603548076035480068A1
:1029A000401C34490860FFF711FB00BF3248006843
:1029B00085423DD300BF2D4800680068002801D142
:1029C000012000E00020002804D00020C0432A4954
:1029D00008602CE025480068C068C4686668B54295
:1029E00002D22548066022E0201DFFF7EDFBA06A19
:1029F000002803D020461830FFF7E6FB1F49E06AA5
:102A00000968884202D91D49E06A08601422E16A17
:102A100051431B4A8818211DFFF716FC1949E06A2B
:102A20000968C96A8842C6D301200090C3E700BF85
:102A300014480068C06A1421484311490858012805
:102A400001D90120009004E00F480068401C0E49A5
:102A500008600E480068002801D00120009000980E
:102A6000F8BD0000500000202C0000201C000020B9
:102A700020000020400000204800002030000020FE
:102A8000DC00002018000020380000203C0000205E
:102A900070B505462C460026002D23D0206D401E23
:102AA0002065E16CE06A88421CD0206D002819D1B5
:102AB000201DFFF789FBE06CE0620A21E06A081A3A
:102AC000A0610949E06A0968884202D90649E06ABA
:102AD00008601422E16A5143044A8818211DFFF757
:102AE000B3FB0126304670BD30000020DC00002022
:102AF00070B505462C460026002D42D02249E06ADA
:102B00000968C96A884235D2A069C00FC007002889
:102B100005D11D480068C06A0A21081AA061142264
:102B2000E06A5043194A80186169814201D101204D
:102B300000E00020002817D0201DFFF745FB1248B9
:102B40000068C06AE0621249E06A0968884202D9F6
:102B50000F49E06A08601422E16A51430B4A881861
:102B6000211DFFF771FB03E007480068C06AE062BF
:102B7000012606E00449E06C0968C96A884200D26F
:102B80000126304670BD000018000020DC00002047
:102B90003000002070B50646F068C4682046183042
:102BA000FFF712FB15480068002813D1201DFFF71E
:102BB0000BFB1349E06A0968884202D91049E06AB0
:102BC00008601422E16A51430E4A8818211DFFF75C
:102BD0003BFB04E0214618310B48FFF735FB0B495E
:102BE000E06A0968C96A884204D9012501200849B8
:102BF000086000E00025284670BD0000500000205D
:102C000030000020DC000020CC0100201800002053
:102C10003C00002070B500240026FFF721FB2D4862
:102C20000068401E2B4908600846006800284DD106
:102C300029480068002849D022E02848C068C468B4
:102C400020461830FFF7C0FA201DFFF7BDFA2449CF
:102C5000E06A0968884202D92149E06A08601422C2
:102C6000E16A51431F4A8818211DFFF7EDFA1E49FA
:102C7000E06A0968C96A884202D301201B490860DA
:102C800016480068002801D1012000E0002000283B
:102C9000D3D0002C01D0FFF799F915480568002D15
:102CA0000DD000BFFFF764FE002802D001200F49BD
:102CB00008606D1E002DF5D100200D4908600B48FD
:102CC0000068002802D00126FFF70EFBFFF7D6FAB6
:102CD000304670BD5000002028000020CC010020AC
:102CE00030000020DC000020180000203C00002004
:102CF00038000020303132333435363738394142EC
:102D0000434445464030580030313233343536374D
:102D10003839616263646566403078003C2D00009C
:102D2000000000207800000004010000B42D000025
:102D300078000020F03900002001000000000000B1
:102D40000000000000000000000000000000000083
:102D50000000000000000000000000000000000073
:102D60000000000000000000000000000000000063
:102D70000000000000000000000000000000000053
:102D80000000000000000000000000000000000043
:102D90000000000000000000000000000000000033
:102DA0000000000000000000000000000000000023
:042DB000AAAAAAAA77
:04000005000000C136
:00000001FF
